{
  "abi": [
    {
      "constant": false,
      "inputs": [
        {
          "name": "_spender",
          "type": "address"
        },
        {
          "name": "_value",
          "type": "uint256"
        }
      ],
      "name": "approve",
      "outputs": [
        {
          "name": "",
          "type": "bool"
        }
      ],
      "payable": false,
      "stateMutability": "nonpayable",
      "type": "function"
    },
    {
      "constant": true,
      "inputs": [],
      "name": "totalSupply",
      "outputs": [
        {
          "name": "",
          "type": "uint256"
        }
      ],
      "payable": false,
      "stateMutability": "view",
      "type": "function"
    },
    {
      "constant": false,
      "inputs": [
        {
          "name": "_from",
          "type": "address"
        },
        {
          "name": "_to",
          "type": "address"
        },
        {
          "name": "_value",
          "type": "uint256"
        }
      ],
      "name": "transferFrom",
      "outputs": [
        {
          "name": "",
          "type": "bool"
        }
      ],
      "payable": false,
      "stateMutability": "nonpayable",
      "type": "function"
    },
    {
      "constant": false,
      "inputs": [
        {
          "name": "_value",
          "type": "uint256"
        }
      ],
      "name": "burn",
      "outputs": [],
      "payable": false,
      "stateMutability": "nonpayable",
      "type": "function"
    },
    {
      "constant": false,
      "inputs": [
        {
          "name": "_spender",
          "type": "address"
        },
        {
          "name": "_subtractedValue",
          "type": "uint256"
        }
      ],
      "name": "decreaseApproval",
      "outputs": [
        {
          "name": "",
          "type": "bool"
        }
      ],
      "payable": false,
      "stateMutability": "nonpayable",
      "type": "function"
    },
    {
      "constant": true,
      "inputs": [
        {
          "name": "_owner",
          "type": "address"
        }
      ],
      "name": "balanceOf",
      "outputs": [
        {
          "name": "",
          "type": "uint256"
        }
      ],
      "payable": false,
      "stateMutability": "view",
      "type": "function"
    },
    {
      "constant": false,
      "inputs": [
        {
          "name": "_from",
          "type": "address"
        },
        {
          "name": "_value",
          "type": "uint256"
        }
      ],
      "name": "burnFrom",
      "outputs": [],
      "payable": false,
      "stateMutability": "nonpayable",
      "type": "function"
    },
    {
      "constant": false,
      "inputs": [
        {
          "name": "_to",
          "type": "address"
        },
        {
          "name": "_value",
          "type": "uint256"
        }
      ],
      "name": "transfer",
      "outputs": [
        {
          "name": "",
          "type": "bool"
        }
      ],
      "payable": false,
      "stateMutability": "nonpayable",
      "type": "function"
    },
    {
      "constant": false,
      "inputs": [
        {
          "name": "_spender",
          "type": "address"
        },
        {
          "name": "_addedValue",
          "type": "uint256"
        }
      ],
      "name": "increaseApproval",
      "outputs": [
        {
          "name": "",
          "type": "bool"
        }
      ],
      "payable": false,
      "stateMutability": "nonpayable",
      "type": "function"
    },
    {
      "constant": true,
      "inputs": [
        {
          "name": "_owner",
          "type": "address"
        },
        {
          "name": "_spender",
          "type": "address"
        }
      ],
      "name": "allowance",
      "outputs": [
        {
          "name": "",
          "type": "uint256"
        }
      ],
      "payable": false,
      "stateMutability": "view",
      "type": "function"
    },
    {
      "anonymous": false,
      "inputs": [
        {
          "indexed": true,
          "name": "burner",
          "type": "address"
        },
        {
          "indexed": false,
          "name": "value",
          "type": "uint256"
        }
      ],
      "name": "Burn",
      "type": "event"
    },
    {
      "anonymous": false,
      "inputs": [
        {
          "indexed": true,
          "name": "owner",
          "type": "address"
        },
        {
          "indexed": true,
          "name": "spender",
          "type": "address"
        },
        {
          "indexed": false,
          "name": "value",
          "type": "uint256"
        }
      ],
      "name": "Approval",
      "type": "event"
    },
    {
      "anonymous": false,
      "inputs": [
        {
          "indexed": true,
          "name": "from",
          "type": "address"
        },
        {
          "indexed": true,
          "name": "to",
          "type": "address"
        },
        {
          "indexed": false,
          "name": "value",
          "type": "uint256"
        }
      ],
      "name": "Transfer",
      "type": "event"
    }
  ],
  "devdoc": {
    "methods": {
      "allowance(address,address)": {
        "details": "Function to check the amount of tokens that an owner allowed to a spender.\r",
        "params": {
          "_owner": "address The address which owns the funds.\r",
          "_spender": "address The address which will spend the funds.\r"
        },
        "return": "A uint256 specifying the amount of tokens still available for the spender.\r"
      },
      "approve(address,uint256)": {
        "details": "Approve the passed address to spend the specified amount of tokens on behalf of msg.sender.\r    * Beware that changing an allowance with this method brings the risk that someone may use both the old\r and the new allowance by unfortunate transaction ordering. One possible solution to mitigate this\r race condition is to first reduce the spender's allowance to 0 and set the desired value afterwards:\r https://github.com/ethereum/EIPs/issues/20#issuecomment-263524729\r",
        "params": {
          "_spender": "The address which will spend the funds.\r",
          "_value": "The amount of tokens to be spent.\r"
        }
      },
      "balanceOf(address)": {
        "details": "Gets the balance of the specified address.\r",
        "params": {
          "_owner": "The address to query the the balance of.\r"
        },
        "return": "An uint256 representing the amount owned by the passed address.\r"
      },
      "burn(uint256)": {
        "details": "Burns a specific amount of tokens.\r",
        "params": {
          "_value": "The amount of token to be burned.\r"
        }
      },
      "burnFrom(address,uint256)": {
        "details": "Burns a specific amount of tokens from the target address and decrements allowance\r",
        "params": {
          "_from": "address The address which you want to send tokens from\r",
          "_value": "uint256 The amount of token to be burned\r"
        }
      },
      "decreaseApproval(address,uint256)": {
        "details": "Decrease the amount of tokens that an owner allowed to a spender.\r    * approve should be called when allowed[_spender] == 0. To decrement\r allowed value is better to use this function to avoid 2 calls (and wait until\r the first transaction is mined)\r From MonolithDAO Token.sol\r",
        "params": {
          "_spender": "The address which will spend the funds.\r",
          "_subtractedValue": "The amount of tokens to decrease the allowance by.\r"
        }
      },
      "increaseApproval(address,uint256)": {
        "details": "Increase the amount of tokens that an owner allowed to a spender.\r    * approve should be called when allowed[_spender] == 0. To increment\r allowed value is better to use this function to avoid 2 calls (and wait until\r the first transaction is mined)\r From MonolithDAO Token.sol\r",
        "params": {
          "_addedValue": "The amount of tokens to increase the allowance by.\r",
          "_spender": "The address which will spend the funds.\r"
        }
      },
      "totalSupply()": {
        "details": "total number of tokens in existence\r"
      },
      "transfer(address,uint256)": {
        "details": "transfer token for a specified address\r",
        "params": {
          "_to": "The address to transfer to.\r",
          "_value": "The amount to be transferred.\r"
        }
      },
      "transferFrom(address,address,uint256)": {
        "details": "Transfer tokens from one address to another\r",
        "params": {
          "_from": "address The address which you want to send tokens from\r",
          "_to": "address The address which you want to transfer to\r",
          "_value": "uint256 the amount of tokens to be transferred\r"
        }
      }
    },
    "title": "Standard Burnable Token\r"
  },
  "evm": {
    "assembly": "    /* \"contracts/token/ERC20/StandardBurnableToken.sol\":192:884   */\n  mstore(0x40, 0x80)\n  callvalue\n    /* \"--CODEGEN--\":8:17   */\n  dup1\n    /* \"--CODEGEN--\":5:7   */\n  iszero\n  tag_1\n  jumpi\n    /* \"--CODEGEN--\":30:31   */\n  0x0\n    /* \"--CODEGEN--\":27:28   */\n  dup1\n    /* \"--CODEGEN--\":20:32   */\n  revert\n    /* \"--CODEGEN--\":5:7   */\ntag_1:\n    /* \"contracts/token/ERC20/StandardBurnableToken.sol\":192:884   */\n  pop\n  dataSize(sub_0)\n  dup1\n  dataOffset(sub_0)\n  0x0\n  codecopy\n  0x0\n  return\nstop\n\nsub_0: assembly {\n        /* \"contracts/token/ERC20/StandardBurnableToken.sol\":192:884   */\n      mstore(0x40, 0x80)\n      jumpi(tag_1, lt(calldatasize, 0x4))\n      calldataload(0x0)\n      0x100000000000000000000000000000000000000000000000000000000\n      swap1\n      div\n      0xffffffff\n      and\n      dup1\n      0x95ea7b3\n      eq\n      tag_2\n      jumpi\n      dup1\n      0x18160ddd\n      eq\n      tag_3\n      jumpi\n      dup1\n      0x23b872dd\n      eq\n      tag_4\n      jumpi\n      dup1\n      0x42966c68\n      eq\n      tag_5\n      jumpi\n      dup1\n      0x66188463\n      eq\n      tag_6\n      jumpi\n      dup1\n      0x70a08231\n      eq\n      tag_7\n      jumpi\n      dup1\n      0x79cc6790\n      eq\n      tag_8\n      jumpi\n      dup1\n      0xa9059cbb\n      eq\n      tag_9\n      jumpi\n      dup1\n      0xd73dd623\n      eq\n      tag_10\n      jumpi\n      dup1\n      0xdd62ed3e\n      eq\n      tag_11\n      jumpi\n    tag_1:\n      0x0\n      dup1\n      revert\n        /* \"contracts/token/ERC20/StandardToken.sol\":1916:2108   */\n    tag_2:\n      callvalue\n        /* \"--CODEGEN--\":8:17   */\n      dup1\n        /* \"--CODEGEN--\":5:7   */\n      iszero\n      tag_12\n      jumpi\n        /* \"--CODEGEN--\":30:31   */\n      0x0\n        /* \"--CODEGEN--\":27:28   */\n      dup1\n        /* \"--CODEGEN--\":20:32   */\n      revert\n        /* \"--CODEGEN--\":5:7   */\n    tag_12:\n        /* \"contracts/token/ERC20/StandardToken.sol\":1916:2108   */\n      pop\n      tag_13\n      0x4\n      dup1\n      calldatasize\n      sub\n      dup2\n      add\n      swap1\n      dup1\n      dup1\n      calldataload\n      0xffffffffffffffffffffffffffffffffffffffff\n      and\n      swap1\n      0x20\n      add\n      swap1\n      swap3\n      swap2\n      swap1\n      dup1\n      calldataload\n      swap1\n      0x20\n      add\n      swap1\n      swap3\n      swap2\n      swap1\n      pop\n      pop\n      pop\n      jump(tag_14)\n    tag_13:\n      mload(0x40)\n      dup1\n      dup3\n      iszero\n      iszero\n      iszero\n      iszero\n      dup2\n      mstore\n      0x20\n      add\n      swap2\n      pop\n      pop\n      mload(0x40)\n      dup1\n      swap2\n      sub\n      swap1\n      return\n        /* \"contracts/token/ERC20/BasicToken.sol\":392:477   */\n    tag_3:\n      callvalue\n        /* \"--CODEGEN--\":8:17   */\n      dup1\n        /* \"--CODEGEN--\":5:7   */\n      iszero\n      tag_15\n      jumpi\n        /* \"--CODEGEN--\":30:31   */\n      0x0\n        /* \"--CODEGEN--\":27:28   */\n      dup1\n        /* \"--CODEGEN--\":20:32   */\n      revert\n        /* \"--CODEGEN--\":5:7   */\n    tag_15:\n        /* \"contracts/token/ERC20/BasicToken.sol\":392:477   */\n      pop\n      tag_16\n      jump(tag_17)\n    tag_16:\n      mload(0x40)\n      dup1\n      dup3\n      dup2\n      mstore\n      0x20\n      add\n      swap2\n      pop\n      pop\n      mload(0x40)\n      dup1\n      swap2\n      sub\n      swap1\n      return\n        /* \"contracts/token/ERC20/StandardToken.sol\":827:1281   */\n    tag_4:\n      callvalue\n        /* \"--CODEGEN--\":8:17   */\n      dup1\n        /* \"--CODEGEN--\":5:7   */\n      iszero\n      tag_18\n      jumpi\n        /* \"--CODEGEN--\":30:31   */\n      0x0\n        /* \"--CODEGEN--\":27:28   */\n      dup1\n        /* \"--CODEGEN--\":20:32   */\n      revert\n        /* \"--CODEGEN--\":5:7   */\n    tag_18:\n        /* \"contracts/token/ERC20/StandardToken.sol\":827:1281   */\n      pop\n      tag_19\n      0x4\n      dup1\n      calldatasize\n      sub\n      dup2\n      add\n      swap1\n      dup1\n      dup1\n      calldataload\n      0xffffffffffffffffffffffffffffffffffffffff\n      and\n      swap1\n      0x20\n      add\n      swap1\n      swap3\n      swap2\n      swap1\n      dup1\n      calldataload\n      0xffffffffffffffffffffffffffffffffffffffff\n      and\n      swap1\n      0x20\n      add\n      swap1\n      swap3\n      swap2\n      swap1\n      dup1\n      calldataload\n      swap1\n      0x20\n      add\n      swap1\n      swap3\n      swap2\n      swap1\n      pop\n      pop\n      pop\n      jump(tag_20)\n    tag_19:\n      mload(0x40)\n      dup1\n      dup3\n      iszero\n      iszero\n      iszero\n      iszero\n      dup2\n      mstore\n      0x20\n      add\n      swap2\n      pop\n      pop\n      mload(0x40)\n      dup1\n      swap2\n      sub\n      swap1\n      return\n        /* \"contracts/token/ERC20/BurnableToken.sol\":370:445   */\n    tag_5:\n      callvalue\n        /* \"--CODEGEN--\":8:17   */\n      dup1\n        /* \"--CODEGEN--\":5:7   */\n      iszero\n      tag_21\n      jumpi\n        /* \"--CODEGEN--\":30:31   */\n      0x0\n        /* \"--CODEGEN--\":27:28   */\n      dup1\n        /* \"--CODEGEN--\":20:32   */\n      revert\n        /* \"--CODEGEN--\":5:7   */\n    tag_21:\n        /* \"contracts/token/ERC20/BurnableToken.sol\":370:445   */\n      pop\n      tag_22\n      0x4\n      dup1\n      calldatasize\n      sub\n      dup2\n      add\n      swap1\n      dup1\n      dup1\n      calldataload\n      swap1\n      0x20\n      add\n      swap1\n      swap3\n      swap2\n      swap1\n      pop\n      pop\n      pop\n      jump(tag_23)\n    tag_22:\n      stop\n        /* \"contracts/token/ERC20/StandardToken.sol\":3772:4184   */\n    tag_6:\n      callvalue\n        /* \"--CODEGEN--\":8:17   */\n      dup1\n        /* \"--CODEGEN--\":5:7   */\n      iszero\n      tag_24\n      jumpi\n        /* \"--CODEGEN--\":30:31   */\n      0x0\n        /* \"--CODEGEN--\":27:28   */\n      dup1\n        /* \"--CODEGEN--\":20:32   */\n      revert\n        /* \"--CODEGEN--\":5:7   */\n    tag_24:\n        /* \"contracts/token/ERC20/StandardToken.sol\":3772:4184   */\n      pop\n      tag_25\n      0x4\n      dup1\n      calldatasize\n      sub\n      dup2\n      add\n      swap1\n      dup1\n      dup1\n      calldataload\n      0xffffffffffffffffffffffffffffffffffffffff\n      and\n      swap1\n      0x20\n      add\n      swap1\n      swap3\n      swap2\n      swap1\n      dup1\n      calldataload\n      swap1\n      0x20\n      add\n      swap1\n      swap3\n      swap2\n      swap1\n      pop\n      pop\n      pop\n      jump(tag_26)\n    tag_25:\n      mload(0x40)\n      dup1\n      dup3\n      iszero\n      iszero\n      iszero\n      iszero\n      dup2\n      mstore\n      0x20\n      add\n      swap2\n      pop\n      pop\n      mload(0x40)\n      dup1\n      swap2\n      sub\n      swap1\n      return\n        /* \"contracts/token/ERC20/BasicToken.sol\":1176:1277   */\n    tag_7:\n      callvalue\n        /* \"--CODEGEN--\":8:17   */\n      dup1\n        /* \"--CODEGEN--\":5:7   */\n      iszero\n      tag_27\n      jumpi\n        /* \"--CODEGEN--\":30:31   */\n      0x0\n        /* \"--CODEGEN--\":27:28   */\n      dup1\n        /* \"--CODEGEN--\":20:32   */\n      revert\n        /* \"--CODEGEN--\":5:7   */\n    tag_27:\n        /* \"contracts/token/ERC20/BasicToken.sol\":1176:1277   */\n      pop\n      tag_28\n      0x4\n      dup1\n      calldatasize\n      sub\n      dup2\n      add\n      swap1\n      dup1\n      dup1\n      calldataload\n      0xffffffffffffffffffffffffffffffffffffffff\n      and\n      swap1\n      0x20\n      add\n      swap1\n      swap3\n      swap2\n      swap1\n      pop\n      pop\n      pop\n      jump(tag_29)\n    tag_28:\n      mload(0x40)\n      dup1\n      dup3\n      dup2\n      mstore\n      0x20\n      add\n      swap2\n      pop\n      pop\n      mload(0x40)\n      dup1\n      swap2\n      sub\n      swap1\n      return\n        /* \"contracts/token/ERC20/StandardBurnableToken.sol\":505:881   */\n    tag_8:\n      callvalue\n        /* \"--CODEGEN--\":8:17   */\n      dup1\n        /* \"--CODEGEN--\":5:7   */\n      iszero\n      tag_30\n      jumpi\n        /* \"--CODEGEN--\":30:31   */\n      0x0\n        /* \"--CODEGEN--\":27:28   */\n      dup1\n        /* \"--CODEGEN--\":20:32   */\n      revert\n        /* \"--CODEGEN--\":5:7   */\n    tag_30:\n        /* \"contracts/token/ERC20/StandardBurnableToken.sol\":505:881   */\n      pop\n      tag_31\n      0x4\n      dup1\n      calldatasize\n      sub\n      dup2\n      add\n      swap1\n      dup1\n      dup1\n      calldataload\n      0xffffffffffffffffffffffffffffffffffffffff\n      and\n      swap1\n      0x20\n      add\n      swap1\n      swap3\n      swap2\n      swap1\n      dup1\n      calldataload\n      swap1\n      0x20\n      add\n      swap1\n      swap3\n      swap2\n      swap1\n      pop\n      pop\n      pop\n      jump(tag_32)\n    tag_31:\n      stop\n        /* \"contracts/token/ERC20/BasicToken.sol\":638:967   */\n    tag_9:\n      callvalue\n        /* \"--CODEGEN--\":8:17   */\n      dup1\n        /* \"--CODEGEN--\":5:7   */\n      iszero\n      tag_33\n      jumpi\n        /* \"--CODEGEN--\":30:31   */\n      0x0\n        /* \"--CODEGEN--\":27:28   */\n      dup1\n        /* \"--CODEGEN--\":20:32   */\n      revert\n        /* \"--CODEGEN--\":5:7   */\n    tag_33:\n        /* \"contracts/token/ERC20/BasicToken.sol\":638:967   */\n      pop\n      tag_34\n      0x4\n      dup1\n      calldatasize\n      sub\n      dup2\n      add\n      swap1\n      dup1\n      dup1\n      calldataload\n      0xffffffffffffffffffffffffffffffffffffffff\n      and\n      swap1\n      0x20\n      add\n      swap1\n      swap3\n      swap2\n      swap1\n      dup1\n      calldataload\n      swap1\n      0x20\n      add\n      swap1\n      swap3\n      swap2\n      swap1\n      pop\n      pop\n      pop\n      jump(tag_35)\n    tag_34:\n      mload(0x40)\n      dup1\n      dup3\n      iszero\n      iszero\n      iszero\n      iszero\n      dup2\n      mstore\n      0x20\n      add\n      swap2\n      pop\n      pop\n      mload(0x40)\n      dup1\n      swap2\n      sub\n      swap1\n      return\n        /* \"contracts/token/ERC20/StandardToken.sol\":3032:3298   */\n    tag_10:\n      callvalue\n        /* \"--CODEGEN--\":8:17   */\n      dup1\n        /* \"--CODEGEN--\":5:7   */\n      iszero\n      tag_36\n      jumpi\n        /* \"--CODEGEN--\":30:31   */\n      0x0\n        /* \"--CODEGEN--\":27:28   */\n      dup1\n        /* \"--CODEGEN--\":20:32   */\n      revert\n        /* \"--CODEGEN--\":5:7   */\n    tag_36:\n        /* \"contracts/token/ERC20/StandardToken.sol\":3032:3298   */\n      pop\n      tag_37\n      0x4\n      dup1\n      calldatasize\n      sub\n      dup2\n      add\n      swap1\n      dup1\n      dup1\n      calldataload\n      0xffffffffffffffffffffffffffffffffffffffff\n      and\n      swap1\n      0x20\n      add\n      swap1\n      swap3\n      swap2\n      swap1\n      dup1\n      calldataload\n      swap1\n      0x20\n      add\n      swap1\n      swap3\n      swap2\n      swap1\n      pop\n      pop\n      pop\n      jump(tag_38)\n    tag_37:\n      mload(0x40)\n      dup1\n      dup3\n      iszero\n      iszero\n      iszero\n      iszero\n      dup2\n      mstore\n      0x20\n      add\n      swap2\n      pop\n      pop\n      mload(0x40)\n      dup1\n      swap2\n      sub\n      swap1\n      return\n        /* \"contracts/token/ERC20/StandardToken.sol\":2435:2563   */\n    tag_11:\n      callvalue\n        /* \"--CODEGEN--\":8:17   */\n      dup1\n        /* \"--CODEGEN--\":5:7   */\n      iszero\n      tag_39\n      jumpi\n        /* \"--CODEGEN--\":30:31   */\n      0x0\n        /* \"--CODEGEN--\":27:28   */\n      dup1\n        /* \"--CODEGEN--\":20:32   */\n      revert\n        /* \"--CODEGEN--\":5:7   */\n    tag_39:\n        /* \"contracts/token/ERC20/StandardToken.sol\":2435:2563   */\n      pop\n      tag_40\n      0x4\n      dup1\n      calldatasize\n      sub\n      dup2\n      add\n      swap1\n      dup1\n      dup1\n      calldataload\n      0xffffffffffffffffffffffffffffffffffffffff\n      and\n      swap1\n      0x20\n      add\n      swap1\n      swap3\n      swap2\n      swap1\n      dup1\n      calldataload\n      0xffffffffffffffffffffffffffffffffffffffff\n      and\n      swap1\n      0x20\n      add\n      swap1\n      swap3\n      swap2\n      swap1\n      pop\n      pop\n      pop\n      jump(tag_41)\n    tag_40:\n      mload(0x40)\n      dup1\n      dup3\n      dup2\n      mstore\n      0x20\n      add\n      swap2\n      pop\n      pop\n      mload(0x40)\n      dup1\n      swap2\n      sub\n      swap1\n      return\n        /* \"contracts/token/ERC20/StandardToken.sol\":1916:2108   */\n    tag_14:\n        /* \"contracts/token/ERC20/StandardToken.sol\":1983:1987   */\n      0x0\n        /* \"contracts/token/ERC20/StandardToken.sol\":2028:2034   */\n      dup2\n        /* \"contracts/token/ERC20/StandardToken.sol\":1996:2003   */\n      0x2\n        /* \"contracts/token/ERC20/StandardToken.sol\":1996:2015   */\n      0x0\n        /* \"contracts/token/ERC20/StandardToken.sol\":2004:2014   */\n      caller\n        /* \"contracts/token/ERC20/StandardToken.sol\":1996:2015   */\n      0xffffffffffffffffffffffffffffffffffffffff\n      and\n      0xffffffffffffffffffffffffffffffffffffffff\n      and\n      dup2\n      mstore\n      0x20\n      add\n      swap1\n      dup2\n      mstore\n      0x20\n      add\n      0x0\n      keccak256\n        /* \"contracts/token/ERC20/StandardToken.sol\":1996:2025   */\n      0x0\n        /* \"contracts/token/ERC20/StandardToken.sol\":2016:2024   */\n      dup6\n        /* \"contracts/token/ERC20/StandardToken.sol\":1996:2025   */\n      0xffffffffffffffffffffffffffffffffffffffff\n      and\n      0xffffffffffffffffffffffffffffffffffffffff\n      and\n      dup2\n      mstore\n      0x20\n      add\n      swap1\n      dup2\n      mstore\n      0x20\n      add\n      0x0\n      keccak256\n        /* \"contracts/token/ERC20/StandardToken.sol\":1996:2034   */\n      dup2\n      swap1\n      sstore\n      pop\n        /* \"contracts/token/ERC20/StandardToken.sol\":2067:2075   */\n      dup3\n        /* \"contracts/token/ERC20/StandardToken.sol\":2046:2084   */\n      0xffffffffffffffffffffffffffffffffffffffff\n      and\n        /* \"contracts/token/ERC20/StandardToken.sol\":2055:2065   */\n      caller\n        /* \"contracts/token/ERC20/StandardToken.sol\":2046:2084   */\n      0xffffffffffffffffffffffffffffffffffffffff\n      and\n      0x8c5be1e5ebec7d5bd14f71427d1e84f3dd0314c0f7b2291e5b200ac8c7c3b925\n        /* \"contracts/token/ERC20/StandardToken.sol\":2077:2083   */\n      dup5\n        /* \"contracts/token/ERC20/StandardToken.sol\":2046:2084   */\n      mload(0x40)\n      dup1\n      dup3\n      dup2\n      mstore\n      0x20\n      add\n      swap2\n      pop\n      pop\n      mload(0x40)\n      dup1\n      swap2\n      sub\n      swap1\n      log3\n        /* \"contracts/token/ERC20/StandardToken.sol\":2098:2102   */\n      0x1\n        /* \"contracts/token/ERC20/StandardToken.sol\":2091:2102   */\n      swap1\n      pop\n        /* \"contracts/token/ERC20/StandardToken.sol\":1916:2108   */\n      swap3\n      swap2\n      pop\n      pop\n      jump\t// out\n        /* \"contracts/token/ERC20/BasicToken.sol\":392:477   */\n    tag_17:\n        /* \"contracts/token/ERC20/BasicToken.sol\":436:443   */\n      0x0\n        /* \"contracts/token/ERC20/BasicToken.sol\":459:471   */\n      sload(0x1)\n        /* \"contracts/token/ERC20/BasicToken.sol\":452:471   */\n      swap1\n      pop\n        /* \"contracts/token/ERC20/BasicToken.sol\":392:477   */\n      swap1\n      jump\t// out\n        /* \"contracts/token/ERC20/StandardToken.sol\":827:1281   */\n    tag_20:\n        /* \"contracts/token/ERC20/StandardToken.sol\":909:913   */\n      0x0\n        /* \"contracts/token/ERC20/StandardToken.sol\":945:946   */\n      dup1\n        /* \"contracts/token/ERC20/StandardToken.sol\":930:947   */\n      0xffffffffffffffffffffffffffffffffffffffff\n      and\n        /* \"contracts/token/ERC20/StandardToken.sol\":930:933   */\n      dup4\n        /* \"contracts/token/ERC20/StandardToken.sol\":930:947   */\n      0xffffffffffffffffffffffffffffffffffffffff\n      and\n      eq\n      iszero\n        /* \"contracts/token/ERC20/StandardToken.sol\":922:948   */\n      iszero\n      iszero\n      tag_45\n      jumpi\n      0x0\n      dup1\n      revert\n    tag_45:\n        /* \"contracts/token/ERC20/StandardToken.sol\":973:981   */\n      0x0\n        /* \"contracts/token/ERC20/StandardToken.sol\":973:988   */\n      dup1\n        /* \"contracts/token/ERC20/StandardToken.sol\":982:987   */\n      dup6\n        /* \"contracts/token/ERC20/StandardToken.sol\":973:988   */\n      0xffffffffffffffffffffffffffffffffffffffff\n      and\n      0xffffffffffffffffffffffffffffffffffffffff\n      and\n      dup2\n      mstore\n      0x20\n      add\n      swap1\n      dup2\n      mstore\n      0x20\n      add\n      0x0\n      keccak256\n      sload\n        /* \"contracts/token/ERC20/StandardToken.sol\":963:969   */\n      dup3\n        /* \"contracts/token/ERC20/StandardToken.sol\":963:988   */\n      gt\n      iszero\n        /* \"contracts/token/ERC20/StandardToken.sol\":955:989   */\n      iszero\n      iszero\n      tag_46\n      jumpi\n      0x0\n      dup1\n      revert\n    tag_46:\n        /* \"contracts/token/ERC20/StandardToken.sol\":1014:1021   */\n      0x2\n        /* \"contracts/token/ERC20/StandardToken.sol\":1014:1028   */\n      0x0\n        /* \"contracts/token/ERC20/StandardToken.sol\":1022:1027   */\n      dup6\n        /* \"contracts/token/ERC20/StandardToken.sol\":1014:1028   */\n      0xffffffffffffffffffffffffffffffffffffffff\n      and\n      0xffffffffffffffffffffffffffffffffffffffff\n      and\n      dup2\n      mstore\n      0x20\n      add\n      swap1\n      dup2\n      mstore\n      0x20\n      add\n      0x0\n      keccak256\n        /* \"contracts/token/ERC20/StandardToken.sol\":1014:1040   */\n      0x0\n        /* \"contracts/token/ERC20/StandardToken.sol\":1029:1039   */\n      caller\n        /* \"contracts/token/ERC20/StandardToken.sol\":1014:1040   */\n      0xffffffffffffffffffffffffffffffffffffffff\n      and\n      0xffffffffffffffffffffffffffffffffffffffff\n      and\n      dup2\n      mstore\n      0x20\n      add\n      swap1\n      dup2\n      mstore\n      0x20\n      add\n      0x0\n      keccak256\n      sload\n        /* \"contracts/token/ERC20/StandardToken.sol\":1004:1010   */\n      dup3\n        /* \"contracts/token/ERC20/StandardToken.sol\":1004:1040   */\n      gt\n      iszero\n        /* \"contracts/token/ERC20/StandardToken.sol\":996:1041   */\n      iszero\n      iszero\n      tag_47\n      jumpi\n      0x0\n      dup1\n      revert\n    tag_47:\n        /* \"contracts/token/ERC20/StandardToken.sol\":1068:1095   */\n      tag_48\n        /* \"contracts/token/ERC20/StandardToken.sol\":1088:1094   */\n      dup3\n        /* \"contracts/token/ERC20/StandardToken.sol\":1068:1076   */\n      0x0\n        /* \"contracts/token/ERC20/StandardToken.sol\":1068:1083   */\n      dup1\n        /* \"contracts/token/ERC20/StandardToken.sol\":1077:1082   */\n      dup8\n        /* \"contracts/token/ERC20/StandardToken.sol\":1068:1083   */\n      0xffffffffffffffffffffffffffffffffffffffff\n      and\n      0xffffffffffffffffffffffffffffffffffffffff\n      and\n      dup2\n      mstore\n      0x20\n      add\n      swap1\n      dup2\n      mstore\n      0x20\n      add\n      0x0\n      keccak256\n      sload\n        /* \"contracts/token/ERC20/StandardToken.sol\":1068:1087   */\n      tag_49\n      swap1\n        /* \"contracts/token/ERC20/StandardToken.sol\":1068:1095   */\n      swap2\n      swap1\n      0xffffffff\n      and\n      jump\t// in\n    tag_48:\n        /* \"contracts/token/ERC20/StandardToken.sol\":1050:1058   */\n      0x0\n        /* \"contracts/token/ERC20/StandardToken.sol\":1050:1065   */\n      dup1\n        /* \"contracts/token/ERC20/StandardToken.sol\":1059:1064   */\n      dup7\n        /* \"contracts/token/ERC20/StandardToken.sol\":1050:1065   */\n      0xffffffffffffffffffffffffffffffffffffffff\n      and\n      0xffffffffffffffffffffffffffffffffffffffff\n      and\n      dup2\n      mstore\n      0x20\n      add\n      swap1\n      dup2\n      mstore\n      0x20\n      add\n      0x0\n      keccak256\n        /* \"contracts/token/ERC20/StandardToken.sol\":1050:1095   */\n      dup2\n      swap1\n      sstore\n      pop\n        /* \"contracts/token/ERC20/StandardToken.sol\":1118:1143   */\n      tag_50\n        /* \"contracts/token/ERC20/StandardToken.sol\":1136:1142   */\n      dup3\n        /* \"contracts/token/ERC20/StandardToken.sol\":1118:1126   */\n      0x0\n        /* \"contracts/token/ERC20/StandardToken.sol\":1118:1131   */\n      dup1\n        /* \"contracts/token/ERC20/StandardToken.sol\":1127:1130   */\n      dup7\n        /* \"contracts/token/ERC20/StandardToken.sol\":1118:1131   */\n      0xffffffffffffffffffffffffffffffffffffffff\n      and\n      0xffffffffffffffffffffffffffffffffffffffff\n      and\n      dup2\n      mstore\n      0x20\n      add\n      swap1\n      dup2\n      mstore\n      0x20\n      add\n      0x0\n      keccak256\n      sload\n        /* \"contracts/token/ERC20/StandardToken.sol\":1118:1135   */\n      tag_51\n      swap1\n        /* \"contracts/token/ERC20/StandardToken.sol\":1118:1143   */\n      swap2\n      swap1\n      0xffffffff\n      and\n      jump\t// in\n    tag_50:\n        /* \"contracts/token/ERC20/StandardToken.sol\":1102:1110   */\n      0x0\n        /* \"contracts/token/ERC20/StandardToken.sol\":1102:1115   */\n      dup1\n        /* \"contracts/token/ERC20/StandardToken.sol\":1111:1114   */\n      dup6\n        /* \"contracts/token/ERC20/StandardToken.sol\":1102:1115   */\n      0xffffffffffffffffffffffffffffffffffffffff\n      and\n      0xffffffffffffffffffffffffffffffffffffffff\n      and\n      dup2\n      mstore\n      0x20\n      add\n      swap1\n      dup2\n      mstore\n      0x20\n      add\n      0x0\n      keccak256\n        /* \"contracts/token/ERC20/StandardToken.sol\":1102:1143   */\n      dup2\n      swap1\n      sstore\n      pop\n        /* \"contracts/token/ERC20/StandardToken.sol\":1179:1217   */\n      tag_52\n        /* \"contracts/token/ERC20/StandardToken.sol\":1210:1216   */\n      dup3\n        /* \"contracts/token/ERC20/StandardToken.sol\":1179:1186   */\n      0x2\n        /* \"contracts/token/ERC20/StandardToken.sol\":1179:1193   */\n      0x0\n        /* \"contracts/token/ERC20/StandardToken.sol\":1187:1192   */\n      dup8\n        /* \"contracts/token/ERC20/StandardToken.sol\":1179:1193   */\n      0xffffffffffffffffffffffffffffffffffffffff\n      and\n      0xffffffffffffffffffffffffffffffffffffffff\n      and\n      dup2\n      mstore\n      0x20\n      add\n      swap1\n      dup2\n      mstore\n      0x20\n      add\n      0x0\n      keccak256\n        /* \"contracts/token/ERC20/StandardToken.sol\":1179:1205   */\n      0x0\n        /* \"contracts/token/ERC20/StandardToken.sol\":1194:1204   */\n      caller\n        /* \"contracts/token/ERC20/StandardToken.sol\":1179:1205   */\n      0xffffffffffffffffffffffffffffffffffffffff\n      and\n      0xffffffffffffffffffffffffffffffffffffffff\n      and\n      dup2\n      mstore\n      0x20\n      add\n      swap1\n      dup2\n      mstore\n      0x20\n      add\n      0x0\n      keccak256\n      sload\n        /* \"contracts/token/ERC20/StandardToken.sol\":1179:1209   */\n      tag_49\n      swap1\n        /* \"contracts/token/ERC20/StandardToken.sol\":1179:1217   */\n      swap2\n      swap1\n      0xffffffff\n      and\n      jump\t// in\n    tag_52:\n        /* \"contracts/token/ERC20/StandardToken.sol\":1150:1157   */\n      0x2\n        /* \"contracts/token/ERC20/StandardToken.sol\":1150:1164   */\n      0x0\n        /* \"contracts/token/ERC20/StandardToken.sol\":1158:1163   */\n      dup7\n        /* \"contracts/token/ERC20/StandardToken.sol\":1150:1164   */\n      0xffffffffffffffffffffffffffffffffffffffff\n      and\n      0xffffffffffffffffffffffffffffffffffffffff\n      and\n      dup2\n      mstore\n      0x20\n      add\n      swap1\n      dup2\n      mstore\n      0x20\n      add\n      0x0\n      keccak256\n        /* \"contracts/token/ERC20/StandardToken.sol\":1150:1176   */\n      0x0\n        /* \"contracts/token/ERC20/StandardToken.sol\":1165:1175   */\n      caller\n        /* \"contracts/token/ERC20/StandardToken.sol\":1150:1176   */\n      0xffffffffffffffffffffffffffffffffffffffff\n      and\n      0xffffffffffffffffffffffffffffffffffffffff\n      and\n      dup2\n      mstore\n      0x20\n      add\n      swap1\n      dup2\n      mstore\n      0x20\n      add\n      0x0\n      keccak256\n        /* \"contracts/token/ERC20/StandardToken.sol\":1150:1217   */\n      dup2\n      swap1\n      sstore\n      pop\n        /* \"contracts/token/ERC20/StandardToken.sol\":1245:1248   */\n      dup3\n        /* \"contracts/token/ERC20/StandardToken.sol\":1229:1257   */\n      0xffffffffffffffffffffffffffffffffffffffff\n      and\n        /* \"contracts/token/ERC20/StandardToken.sol\":1238:1243   */\n      dup5\n        /* \"contracts/token/ERC20/StandardToken.sol\":1229:1257   */\n      0xffffffffffffffffffffffffffffffffffffffff\n      and\n      0xddf252ad1be2c89b69c2b068fc378daa952ba7f163c4a11628f55a4df523b3ef\n        /* \"contracts/token/ERC20/StandardToken.sol\":1250:1256   */\n      dup5\n        /* \"contracts/token/ERC20/StandardToken.sol\":1229:1257   */\n      mload(0x40)\n      dup1\n      dup3\n      dup2\n      mstore\n      0x20\n      add\n      swap2\n      pop\n      pop\n      mload(0x40)\n      dup1\n      swap2\n      sub\n      swap1\n      log3\n        /* \"contracts/token/ERC20/StandardToken.sol\":1271:1275   */\n      0x1\n        /* \"contracts/token/ERC20/StandardToken.sol\":1264:1275   */\n      swap1\n      pop\n        /* \"contracts/token/ERC20/StandardToken.sol\":827:1281   */\n      swap4\n      swap3\n      pop\n      pop\n      pop\n      jump\t// out\n        /* \"contracts/token/ERC20/BurnableToken.sol\":370:445   */\n    tag_23:\n        /* \"contracts/token/ERC20/BurnableToken.sol\":414:439   */\n      tag_54\n        /* \"contracts/token/ERC20/BurnableToken.sol\":420:430   */\n      caller\n        /* \"contracts/token/ERC20/BurnableToken.sol\":432:438   */\n      dup3\n        /* \"contracts/token/ERC20/BurnableToken.sol\":414:419   */\n      tag_55\n        /* \"contracts/token/ERC20/BurnableToken.sol\":414:439   */\n      jump\t// in\n    tag_54:\n        /* \"contracts/token/ERC20/BurnableToken.sol\":370:445   */\n      pop\n      jump\t// out\n        /* \"contracts/token/ERC20/StandardToken.sol\":3772:4184   */\n    tag_26:\n        /* \"contracts/token/ERC20/StandardToken.sol\":3855:3859   */\n      0x0\n        /* \"contracts/token/ERC20/StandardToken.sol\":3868:3881   */\n      dup1\n        /* \"contracts/token/ERC20/StandardToken.sol\":3884:3891   */\n      0x2\n        /* \"contracts/token/ERC20/StandardToken.sol\":3884:3903   */\n      0x0\n        /* \"contracts/token/ERC20/StandardToken.sol\":3892:3902   */\n      caller\n        /* \"contracts/token/ERC20/StandardToken.sol\":3884:3903   */\n      0xffffffffffffffffffffffffffffffffffffffff\n      and\n      0xffffffffffffffffffffffffffffffffffffffff\n      and\n      dup2\n      mstore\n      0x20\n      add\n      swap1\n      dup2\n      mstore\n      0x20\n      add\n      0x0\n      keccak256\n        /* \"contracts/token/ERC20/StandardToken.sol\":3884:3913   */\n      0x0\n        /* \"contracts/token/ERC20/StandardToken.sol\":3904:3912   */\n      dup6\n        /* \"contracts/token/ERC20/StandardToken.sol\":3884:3913   */\n      0xffffffffffffffffffffffffffffffffffffffff\n      and\n      0xffffffffffffffffffffffffffffffffffffffff\n      and\n      dup2\n      mstore\n      0x20\n      add\n      swap1\n      dup2\n      mstore\n      0x20\n      add\n      0x0\n      keccak256\n      sload\n        /* \"contracts/token/ERC20/StandardToken.sol\":3868:3913   */\n      swap1\n      pop\n        /* \"contracts/token/ERC20/StandardToken.sol\":3943:3951   */\n      dup1\n        /* \"contracts/token/ERC20/StandardToken.sol\":3924:3940   */\n      dup4\n        /* \"contracts/token/ERC20/StandardToken.sol\":3924:3951   */\n      gt\n        /* \"contracts/token/ERC20/StandardToken.sol\":3920:4088   */\n      iszero\n      tag_57\n      jumpi\n        /* \"contracts/token/ERC20/StandardToken.sol\":3994:3995   */\n      0x0\n        /* \"contracts/token/ERC20/StandardToken.sol\":3962:3969   */\n      0x2\n        /* \"contracts/token/ERC20/StandardToken.sol\":3962:3981   */\n      0x0\n        /* \"contracts/token/ERC20/StandardToken.sol\":3970:3980   */\n      caller\n        /* \"contracts/token/ERC20/StandardToken.sol\":3962:3981   */\n      0xffffffffffffffffffffffffffffffffffffffff\n      and\n      0xffffffffffffffffffffffffffffffffffffffff\n      and\n      dup2\n      mstore\n      0x20\n      add\n      swap1\n      dup2\n      mstore\n      0x20\n      add\n      0x0\n      keccak256\n        /* \"contracts/token/ERC20/StandardToken.sol\":3962:3991   */\n      0x0\n        /* \"contracts/token/ERC20/StandardToken.sol\":3982:3990   */\n      dup7\n        /* \"contracts/token/ERC20/StandardToken.sol\":3962:3991   */\n      0xffffffffffffffffffffffffffffffffffffffff\n      and\n      0xffffffffffffffffffffffffffffffffffffffff\n      and\n      dup2\n      mstore\n      0x20\n      add\n      swap1\n      dup2\n      mstore\n      0x20\n      add\n      0x0\n      keccak256\n        /* \"contracts/token/ERC20/StandardToken.sol\":3962:3995   */\n      dup2\n      swap1\n      sstore\n      pop\n        /* \"contracts/token/ERC20/StandardToken.sol\":3920:4088   */\n      jump(tag_58)\n    tag_57:\n        /* \"contracts/token/ERC20/StandardToken.sol\":4050:4080   */\n      tag_59\n        /* \"contracts/token/ERC20/StandardToken.sol\":4063:4079   */\n      dup4\n        /* \"contracts/token/ERC20/StandardToken.sol\":4050:4058   */\n      dup3\n        /* \"contracts/token/ERC20/StandardToken.sol\":4050:4062   */\n      tag_49\n      swap1\n        /* \"contracts/token/ERC20/StandardToken.sol\":4050:4080   */\n      swap2\n      swap1\n      0xffffffff\n      and\n      jump\t// in\n    tag_59:\n        /* \"contracts/token/ERC20/StandardToken.sol\":4018:4025   */\n      0x2\n        /* \"contracts/token/ERC20/StandardToken.sol\":4018:4037   */\n      0x0\n        /* \"contracts/token/ERC20/StandardToken.sol\":4026:4036   */\n      caller\n        /* \"contracts/token/ERC20/StandardToken.sol\":4018:4037   */\n      0xffffffffffffffffffffffffffffffffffffffff\n      and\n      0xffffffffffffffffffffffffffffffffffffffff\n      and\n      dup2\n      mstore\n      0x20\n      add\n      swap1\n      dup2\n      mstore\n      0x20\n      add\n      0x0\n      keccak256\n        /* \"contracts/token/ERC20/StandardToken.sol\":4018:4047   */\n      0x0\n        /* \"contracts/token/ERC20/StandardToken.sol\":4038:4046   */\n      dup7\n        /* \"contracts/token/ERC20/StandardToken.sol\":4018:4047   */\n      0xffffffffffffffffffffffffffffffffffffffff\n      and\n      0xffffffffffffffffffffffffffffffffffffffff\n      and\n      dup2\n      mstore\n      0x20\n      add\n      swap1\n      dup2\n      mstore\n      0x20\n      add\n      0x0\n      keccak256\n        /* \"contracts/token/ERC20/StandardToken.sol\":4018:4080   */\n      dup2\n      swap1\n      sstore\n      pop\n        /* \"contracts/token/ERC20/StandardToken.sol\":3920:4088   */\n    tag_58:\n        /* \"contracts/token/ERC20/StandardToken.sol\":4120:4128   */\n      dup4\n        /* \"contracts/token/ERC20/StandardToken.sol\":4099:4160   */\n      0xffffffffffffffffffffffffffffffffffffffff\n      and\n        /* \"contracts/token/ERC20/StandardToken.sol\":4108:4118   */\n      caller\n        /* \"contracts/token/ERC20/StandardToken.sol\":4099:4160   */\n      0xffffffffffffffffffffffffffffffffffffffff\n      and\n      0x8c5be1e5ebec7d5bd14f71427d1e84f3dd0314c0f7b2291e5b200ac8c7c3b925\n        /* \"contracts/token/ERC20/StandardToken.sol\":4130:4137   */\n      0x2\n        /* \"contracts/token/ERC20/StandardToken.sol\":4130:4149   */\n      0x0\n        /* \"contracts/token/ERC20/StandardToken.sol\":4138:4148   */\n      caller\n        /* \"contracts/token/ERC20/StandardToken.sol\":4130:4149   */\n      0xffffffffffffffffffffffffffffffffffffffff\n      and\n      0xffffffffffffffffffffffffffffffffffffffff\n      and\n      dup2\n      mstore\n      0x20\n      add\n      swap1\n      dup2\n      mstore\n      0x20\n      add\n      0x0\n      keccak256\n        /* \"contracts/token/ERC20/StandardToken.sol\":4130:4159   */\n      0x0\n        /* \"contracts/token/ERC20/StandardToken.sol\":4150:4158   */\n      dup9\n        /* \"contracts/token/ERC20/StandardToken.sol\":4130:4159   */\n      0xffffffffffffffffffffffffffffffffffffffff\n      and\n      0xffffffffffffffffffffffffffffffffffffffff\n      and\n      dup2\n      mstore\n      0x20\n      add\n      swap1\n      dup2\n      mstore\n      0x20\n      add\n      0x0\n      keccak256\n      sload\n        /* \"contracts/token/ERC20/StandardToken.sol\":4099:4160   */\n      mload(0x40)\n      dup1\n      dup3\n      dup2\n      mstore\n      0x20\n      add\n      swap2\n      pop\n      pop\n      mload(0x40)\n      dup1\n      swap2\n      sub\n      swap1\n      log3\n        /* \"contracts/token/ERC20/StandardToken.sol\":4174:4178   */\n      0x1\n        /* \"contracts/token/ERC20/StandardToken.sol\":4167:4178   */\n      swap2\n      pop\n        /* \"contracts/token/ERC20/StandardToken.sol\":3772:4184   */\n      pop\n      swap3\n      swap2\n      pop\n      pop\n      jump\t// out\n        /* \"contracts/token/ERC20/BasicToken.sol\":1176:1277   */\n    tag_29:\n        /* \"contracts/token/ERC20/BasicToken.sol\":1232:1239   */\n      0x0\n        /* \"contracts/token/ERC20/BasicToken.sol\":1255:1263   */\n      dup1\n        /* \"contracts/token/ERC20/BasicToken.sol\":1255:1271   */\n      0x0\n        /* \"contracts/token/ERC20/BasicToken.sol\":1264:1270   */\n      dup4\n        /* \"contracts/token/ERC20/BasicToken.sol\":1255:1271   */\n      0xffffffffffffffffffffffffffffffffffffffff\n      and\n      0xffffffffffffffffffffffffffffffffffffffff\n      and\n      dup2\n      mstore\n      0x20\n      add\n      swap1\n      dup2\n      mstore\n      0x20\n      add\n      0x0\n      keccak256\n      sload\n        /* \"contracts/token/ERC20/BasicToken.sol\":1248:1271   */\n      swap1\n      pop\n        /* \"contracts/token/ERC20/BasicToken.sol\":1176:1277   */\n      swap2\n      swap1\n      pop\n      jump\t// out\n        /* \"contracts/token/ERC20/StandardBurnableToken.sol\":505:881   */\n    tag_32:\n        /* \"contracts/token/ERC20/StandardBurnableToken.sol\":586:593   */\n      0x2\n        /* \"contracts/token/ERC20/StandardBurnableToken.sol\":586:600   */\n      0x0\n        /* \"contracts/token/ERC20/StandardBurnableToken.sol\":594:599   */\n      dup4\n        /* \"contracts/token/ERC20/StandardBurnableToken.sol\":586:600   */\n      0xffffffffffffffffffffffffffffffffffffffff\n      and\n      0xffffffffffffffffffffffffffffffffffffffff\n      and\n      dup2\n      mstore\n      0x20\n      add\n      swap1\n      dup2\n      mstore\n      0x20\n      add\n      0x0\n      keccak256\n        /* \"contracts/token/ERC20/StandardBurnableToken.sol\":586:612   */\n      0x0\n        /* \"contracts/token/ERC20/StandardBurnableToken.sol\":601:611   */\n      caller\n        /* \"contracts/token/ERC20/StandardBurnableToken.sol\":586:612   */\n      0xffffffffffffffffffffffffffffffffffffffff\n      and\n      0xffffffffffffffffffffffffffffffffffffffff\n      and\n      dup2\n      mstore\n      0x20\n      add\n      swap1\n      dup2\n      mstore\n      0x20\n      add\n      0x0\n      keccak256\n      sload\n        /* \"contracts/token/ERC20/StandardBurnableToken.sol\":576:582   */\n      dup2\n        /* \"contracts/token/ERC20/StandardBurnableToken.sol\":576:612   */\n      gt\n      iszero\n        /* \"contracts/token/ERC20/StandardBurnableToken.sol\":568:613   */\n      iszero\n      iszero\n      tag_62\n      jumpi\n      0x0\n      dup1\n      revert\n    tag_62:\n        /* \"contracts/token/ERC20/StandardBurnableToken.sol\":810:848   */\n      tag_63\n        /* \"contracts/token/ERC20/StandardBurnableToken.sol\":841:847   */\n      dup2\n        /* \"contracts/token/ERC20/StandardBurnableToken.sol\":810:817   */\n      0x2\n        /* \"contracts/token/ERC20/StandardBurnableToken.sol\":810:824   */\n      0x0\n        /* \"contracts/token/ERC20/StandardBurnableToken.sol\":818:823   */\n      dup6\n        /* \"contracts/token/ERC20/StandardBurnableToken.sol\":810:824   */\n      0xffffffffffffffffffffffffffffffffffffffff\n      and\n      0xffffffffffffffffffffffffffffffffffffffff\n      and\n      dup2\n      mstore\n      0x20\n      add\n      swap1\n      dup2\n      mstore\n      0x20\n      add\n      0x0\n      keccak256\n        /* \"contracts/token/ERC20/StandardBurnableToken.sol\":810:836   */\n      0x0\n        /* \"contracts/token/ERC20/StandardBurnableToken.sol\":825:835   */\n      caller\n        /* \"contracts/token/ERC20/StandardBurnableToken.sol\":810:836   */\n      0xffffffffffffffffffffffffffffffffffffffff\n      and\n      0xffffffffffffffffffffffffffffffffffffffff\n      and\n      dup2\n      mstore\n      0x20\n      add\n      swap1\n      dup2\n      mstore\n      0x20\n      add\n      0x0\n      keccak256\n      sload\n        /* \"contracts/token/ERC20/StandardBurnableToken.sol\":810:840   */\n      tag_49\n      swap1\n        /* \"contracts/token/ERC20/StandardBurnableToken.sol\":810:848   */\n      swap2\n      swap1\n      0xffffffff\n      and\n      jump\t// in\n    tag_63:\n        /* \"contracts/token/ERC20/StandardBurnableToken.sol\":781:788   */\n      0x2\n        /* \"contracts/token/ERC20/StandardBurnableToken.sol\":781:795   */\n      0x0\n        /* \"contracts/token/ERC20/StandardBurnableToken.sol\":789:794   */\n      dup5\n        /* \"contracts/token/ERC20/StandardBurnableToken.sol\":781:795   */\n      0xffffffffffffffffffffffffffffffffffffffff\n      and\n      0xffffffffffffffffffffffffffffffffffffffff\n      and\n      dup2\n      mstore\n      0x20\n      add\n      swap1\n      dup2\n      mstore\n      0x20\n      add\n      0x0\n      keccak256\n        /* \"contracts/token/ERC20/StandardBurnableToken.sol\":781:807   */\n      0x0\n        /* \"contracts/token/ERC20/StandardBurnableToken.sol\":796:806   */\n      caller\n        /* \"contracts/token/ERC20/StandardBurnableToken.sol\":781:807   */\n      0xffffffffffffffffffffffffffffffffffffffff\n      and\n      0xffffffffffffffffffffffffffffffffffffffff\n      and\n      dup2\n      mstore\n      0x20\n      add\n      swap1\n      dup2\n      mstore\n      0x20\n      add\n      0x0\n      keccak256\n        /* \"contracts/token/ERC20/StandardBurnableToken.sol\":781:848   */\n      dup2\n      swap1\n      sstore\n      pop\n        /* \"contracts/token/ERC20/StandardBurnableToken.sol\":855:875   */\n      tag_64\n        /* \"contracts/token/ERC20/StandardBurnableToken.sol\":861:866   */\n      dup3\n        /* \"contracts/token/ERC20/StandardBurnableToken.sol\":868:874   */\n      dup3\n        /* \"contracts/token/ERC20/StandardBurnableToken.sol\":855:860   */\n      tag_55\n        /* \"contracts/token/ERC20/StandardBurnableToken.sol\":855:875   */\n      jump\t// in\n    tag_64:\n        /* \"contracts/token/ERC20/StandardBurnableToken.sol\":505:881   */\n      pop\n      pop\n      jump\t// out\n        /* \"contracts/token/ERC20/BasicToken.sol\":638:967   */\n    tag_35:\n        /* \"contracts/token/ERC20/BasicToken.sol\":701:705   */\n      0x0\n        /* \"contracts/token/ERC20/BasicToken.sol\":737:738   */\n      dup1\n        /* \"contracts/token/ERC20/BasicToken.sol\":722:739   */\n      0xffffffffffffffffffffffffffffffffffffffff\n      and\n        /* \"contracts/token/ERC20/BasicToken.sol\":722:725   */\n      dup4\n        /* \"contracts/token/ERC20/BasicToken.sol\":722:739   */\n      0xffffffffffffffffffffffffffffffffffffffff\n      and\n      eq\n      iszero\n        /* \"contracts/token/ERC20/BasicToken.sol\":714:740   */\n      iszero\n      iszero\n      tag_66\n      jumpi\n      0x0\n      dup1\n      revert\n    tag_66:\n        /* \"contracts/token/ERC20/BasicToken.sol\":765:773   */\n      0x0\n        /* \"contracts/token/ERC20/BasicToken.sol\":765:785   */\n      dup1\n        /* \"contracts/token/ERC20/BasicToken.sol\":774:784   */\n      caller\n        /* \"contracts/token/ERC20/BasicToken.sol\":765:785   */\n      0xffffffffffffffffffffffffffffffffffffffff\n      and\n      0xffffffffffffffffffffffffffffffffffffffff\n      and\n      dup2\n      mstore\n      0x20\n      add\n      swap1\n      dup2\n      mstore\n      0x20\n      add\n      0x0\n      keccak256\n      sload\n        /* \"contracts/token/ERC20/BasicToken.sol\":755:761   */\n      dup3\n        /* \"contracts/token/ERC20/BasicToken.sol\":755:785   */\n      gt\n      iszero\n        /* \"contracts/token/ERC20/BasicToken.sol\":747:786   */\n      iszero\n      iszero\n      tag_67\n      jumpi\n      0x0\n      dup1\n      revert\n    tag_67:\n        /* \"contracts/token/ERC20/BasicToken.sol\":818:850   */\n      tag_68\n        /* \"contracts/token/ERC20/BasicToken.sol\":843:849   */\n      dup3\n        /* \"contracts/token/ERC20/BasicToken.sol\":818:826   */\n      0x0\n        /* \"contracts/token/ERC20/BasicToken.sol\":818:838   */\n      dup1\n        /* \"contracts/token/ERC20/BasicToken.sol\":827:837   */\n      caller\n        /* \"contracts/token/ERC20/BasicToken.sol\":818:838   */\n      0xffffffffffffffffffffffffffffffffffffffff\n      and\n      0xffffffffffffffffffffffffffffffffffffffff\n      and\n      dup2\n      mstore\n      0x20\n      add\n      swap1\n      dup2\n      mstore\n      0x20\n      add\n      0x0\n      keccak256\n      sload\n        /* \"contracts/token/ERC20/BasicToken.sol\":818:842   */\n      tag_49\n      swap1\n        /* \"contracts/token/ERC20/BasicToken.sol\":818:850   */\n      swap2\n      swap1\n      0xffffffff\n      and\n      jump\t// in\n    tag_68:\n        /* \"contracts/token/ERC20/BasicToken.sol\":795:803   */\n      0x0\n        /* \"contracts/token/ERC20/BasicToken.sol\":795:815   */\n      dup1\n        /* \"contracts/token/ERC20/BasicToken.sol\":804:814   */\n      caller\n        /* \"contracts/token/ERC20/BasicToken.sol\":795:815   */\n      0xffffffffffffffffffffffffffffffffffffffff\n      and\n      0xffffffffffffffffffffffffffffffffffffffff\n      and\n      dup2\n      mstore\n      0x20\n      add\n      swap1\n      dup2\n      mstore\n      0x20\n      add\n      0x0\n      keccak256\n        /* \"contracts/token/ERC20/BasicToken.sol\":795:850   */\n      dup2\n      swap1\n      sstore\n      pop\n        /* \"contracts/token/ERC20/BasicToken.sol\":873:898   */\n      tag_69\n        /* \"contracts/token/ERC20/BasicToken.sol\":891:897   */\n      dup3\n        /* \"contracts/token/ERC20/BasicToken.sol\":873:881   */\n      0x0\n        /* \"contracts/token/ERC20/BasicToken.sol\":873:886   */\n      dup1\n        /* \"contracts/token/ERC20/BasicToken.sol\":882:885   */\n      dup7\n        /* \"contracts/token/ERC20/BasicToken.sol\":873:886   */\n      0xffffffffffffffffffffffffffffffffffffffff\n      and\n      0xffffffffffffffffffffffffffffffffffffffff\n      and\n      dup2\n      mstore\n      0x20\n      add\n      swap1\n      dup2\n      mstore\n      0x20\n      add\n      0x0\n      keccak256\n      sload\n        /* \"contracts/token/ERC20/BasicToken.sol\":873:890   */\n      tag_51\n      swap1\n        /* \"contracts/token/ERC20/BasicToken.sol\":873:898   */\n      swap2\n      swap1\n      0xffffffff\n      and\n      jump\t// in\n    tag_69:\n        /* \"contracts/token/ERC20/BasicToken.sol\":857:865   */\n      0x0\n        /* \"contracts/token/ERC20/BasicToken.sol\":857:870   */\n      dup1\n        /* \"contracts/token/ERC20/BasicToken.sol\":866:869   */\n      dup6\n        /* \"contracts/token/ERC20/BasicToken.sol\":857:870   */\n      0xffffffffffffffffffffffffffffffffffffffff\n      and\n      0xffffffffffffffffffffffffffffffffffffffff\n      and\n      dup2\n      mstore\n      0x20\n      add\n      swap1\n      dup2\n      mstore\n      0x20\n      add\n      0x0\n      keccak256\n        /* \"contracts/token/ERC20/BasicToken.sol\":857:898   */\n      dup2\n      swap1\n      sstore\n      pop\n        /* \"contracts/token/ERC20/BasicToken.sol\":931:934   */\n      dup3\n        /* \"contracts/token/ERC20/BasicToken.sol\":910:943   */\n      0xffffffffffffffffffffffffffffffffffffffff\n      and\n        /* \"contracts/token/ERC20/BasicToken.sol\":919:929   */\n      caller\n        /* \"contracts/token/ERC20/BasicToken.sol\":910:943   */\n      0xffffffffffffffffffffffffffffffffffffffff\n      and\n      0xddf252ad1be2c89b69c2b068fc378daa952ba7f163c4a11628f55a4df523b3ef\n        /* \"contracts/token/ERC20/BasicToken.sol\":936:942   */\n      dup5\n        /* \"contracts/token/ERC20/BasicToken.sol\":910:943   */\n      mload(0x40)\n      dup1\n      dup3\n      dup2\n      mstore\n      0x20\n      add\n      swap2\n      pop\n      pop\n      mload(0x40)\n      dup1\n      swap2\n      sub\n      swap1\n      log3\n        /* \"contracts/token/ERC20/BasicToken.sol\":957:961   */\n      0x1\n        /* \"contracts/token/ERC20/BasicToken.sol\":950:961   */\n      swap1\n      pop\n        /* \"contracts/token/ERC20/BasicToken.sol\":638:967   */\n      swap3\n      swap2\n      pop\n      pop\n      jump\t// out\n        /* \"contracts/token/ERC20/StandardToken.sol\":3032:3298   */\n    tag_38:\n        /* \"contracts/token/ERC20/StandardToken.sol\":3110:3114   */\n      0x0\n        /* \"contracts/token/ERC20/StandardToken.sol\":3155:3201   */\n      tag_71\n        /* \"contracts/token/ERC20/StandardToken.sol\":3189:3200   */\n      dup3\n        /* \"contracts/token/ERC20/StandardToken.sol\":3155:3162   */\n      0x2\n        /* \"contracts/token/ERC20/StandardToken.sol\":3155:3174   */\n      0x0\n        /* \"contracts/token/ERC20/StandardToken.sol\":3163:3173   */\n      caller\n        /* \"contracts/token/ERC20/StandardToken.sol\":3155:3174   */\n      0xffffffffffffffffffffffffffffffffffffffff\n      and\n      0xffffffffffffffffffffffffffffffffffffffff\n      and\n      dup2\n      mstore\n      0x20\n      add\n      swap1\n      dup2\n      mstore\n      0x20\n      add\n      0x0\n      keccak256\n        /* \"contracts/token/ERC20/StandardToken.sol\":3155:3184   */\n      0x0\n        /* \"contracts/token/ERC20/StandardToken.sol\":3175:3183   */\n      dup7\n        /* \"contracts/token/ERC20/StandardToken.sol\":3155:3184   */\n      0xffffffffffffffffffffffffffffffffffffffff\n      and\n      0xffffffffffffffffffffffffffffffffffffffff\n      and\n      dup2\n      mstore\n      0x20\n      add\n      swap1\n      dup2\n      mstore\n      0x20\n      add\n      0x0\n      keccak256\n      sload\n        /* \"contracts/token/ERC20/StandardToken.sol\":3155:3188   */\n      tag_51\n      swap1\n        /* \"contracts/token/ERC20/StandardToken.sol\":3155:3201   */\n      swap2\n      swap1\n      0xffffffff\n      and\n      jump\t// in\n    tag_71:\n        /* \"contracts/token/ERC20/StandardToken.sol\":3123:3130   */\n      0x2\n        /* \"contracts/token/ERC20/StandardToken.sol\":3123:3142   */\n      0x0\n        /* \"contracts/token/ERC20/StandardToken.sol\":3131:3141   */\n      caller\n        /* \"contracts/token/ERC20/StandardToken.sol\":3123:3142   */\n      0xffffffffffffffffffffffffffffffffffffffff\n      and\n      0xffffffffffffffffffffffffffffffffffffffff\n      and\n      dup2\n      mstore\n      0x20\n      add\n      swap1\n      dup2\n      mstore\n      0x20\n      add\n      0x0\n      keccak256\n        /* \"contracts/token/ERC20/StandardToken.sol\":3123:3152   */\n      0x0\n        /* \"contracts/token/ERC20/StandardToken.sol\":3143:3151   */\n      dup6\n        /* \"contracts/token/ERC20/StandardToken.sol\":3123:3152   */\n      0xffffffffffffffffffffffffffffffffffffffff\n      and\n      0xffffffffffffffffffffffffffffffffffffffff\n      and\n      dup2\n      mstore\n      0x20\n      add\n      swap1\n      dup2\n      mstore\n      0x20\n      add\n      0x0\n      keccak256\n        /* \"contracts/token/ERC20/StandardToken.sol\":3123:3201   */\n      dup2\n      swap1\n      sstore\n      pop\n        /* \"contracts/token/ERC20/StandardToken.sol\":3234:3242   */\n      dup3\n        /* \"contracts/token/ERC20/StandardToken.sol\":3213:3274   */\n      0xffffffffffffffffffffffffffffffffffffffff\n      and\n        /* \"contracts/token/ERC20/StandardToken.sol\":3222:3232   */\n      caller\n        /* \"contracts/token/ERC20/StandardToken.sol\":3213:3274   */\n      0xffffffffffffffffffffffffffffffffffffffff\n      and\n      0x8c5be1e5ebec7d5bd14f71427d1e84f3dd0314c0f7b2291e5b200ac8c7c3b925\n        /* \"contracts/token/ERC20/StandardToken.sol\":3244:3251   */\n      0x2\n        /* \"contracts/token/ERC20/StandardToken.sol\":3244:3263   */\n      0x0\n        /* \"contracts/token/ERC20/StandardToken.sol\":3252:3262   */\n      caller\n        /* \"contracts/token/ERC20/StandardToken.sol\":3244:3263   */\n      0xffffffffffffffffffffffffffffffffffffffff\n      and\n      0xffffffffffffffffffffffffffffffffffffffff\n      and\n      dup2\n      mstore\n      0x20\n      add\n      swap1\n      dup2\n      mstore\n      0x20\n      add\n      0x0\n      keccak256\n        /* \"contracts/token/ERC20/StandardToken.sol\":3244:3273   */\n      0x0\n        /* \"contracts/token/ERC20/StandardToken.sol\":3264:3272   */\n      dup8\n        /* \"contracts/token/ERC20/StandardToken.sol\":3244:3273   */\n      0xffffffffffffffffffffffffffffffffffffffff\n      and\n      0xffffffffffffffffffffffffffffffffffffffff\n      and\n      dup2\n      mstore\n      0x20\n      add\n      swap1\n      dup2\n      mstore\n      0x20\n      add\n      0x0\n      keccak256\n      sload\n        /* \"contracts/token/ERC20/StandardToken.sol\":3213:3274   */\n      mload(0x40)\n      dup1\n      dup3\n      dup2\n      mstore\n      0x20\n      add\n      swap2\n      pop\n      pop\n      mload(0x40)\n      dup1\n      swap2\n      sub\n      swap1\n      log3\n        /* \"contracts/token/ERC20/StandardToken.sol\":3288:3292   */\n      0x1\n        /* \"contracts/token/ERC20/StandardToken.sol\":3281:3292   */\n      swap1\n      pop\n        /* \"contracts/token/ERC20/StandardToken.sol\":3032:3298   */\n      swap3\n      swap2\n      pop\n      pop\n      jump\t// out\n        /* \"contracts/token/ERC20/StandardToken.sol\":2435:2563   */\n    tag_41:\n        /* \"contracts/token/ERC20/StandardToken.sol\":2509:2516   */\n      0x0\n        /* \"contracts/token/ERC20/StandardToken.sol\":2532:2539   */\n      0x2\n        /* \"contracts/token/ERC20/StandardToken.sol\":2532:2547   */\n      0x0\n        /* \"contracts/token/ERC20/StandardToken.sol\":2540:2546   */\n      dup5\n        /* \"contracts/token/ERC20/StandardToken.sol\":2532:2547   */\n      0xffffffffffffffffffffffffffffffffffffffff\n      and\n      0xffffffffffffffffffffffffffffffffffffffff\n      and\n      dup2\n      mstore\n      0x20\n      add\n      swap1\n      dup2\n      mstore\n      0x20\n      add\n      0x0\n      keccak256\n        /* \"contracts/token/ERC20/StandardToken.sol\":2532:2557   */\n      0x0\n        /* \"contracts/token/ERC20/StandardToken.sol\":2548:2556   */\n      dup4\n        /* \"contracts/token/ERC20/StandardToken.sol\":2532:2557   */\n      0xffffffffffffffffffffffffffffffffffffffff\n      and\n      0xffffffffffffffffffffffffffffffffffffffff\n      and\n      dup2\n      mstore\n      0x20\n      add\n      swap1\n      dup2\n      mstore\n      0x20\n      add\n      0x0\n      keccak256\n      sload\n        /* \"contracts/token/ERC20/StandardToken.sol\":2525:2557   */\n      swap1\n      pop\n        /* \"contracts/token/ERC20/StandardToken.sol\":2435:2563   */\n      swap3\n      swap2\n      pop\n      pop\n      jump\t// out\n        /* \"contracts/math/SafeMath.sol\":870:983   */\n    tag_49:\n        /* \"contracts/math/SafeMath.sol\":928:935   */\n      0x0\n        /* \"contracts/math/SafeMath.sol\":956:957   */\n      dup3\n        /* \"contracts/math/SafeMath.sol\":951:952   */\n      dup3\n        /* \"contracts/math/SafeMath.sol\":951:957   */\n      gt\n      iszero\n        /* \"contracts/math/SafeMath.sol\":944:958   */\n      iszero\n      iszero\n      tag_74\n      jumpi\n      invalid\n    tag_74:\n        /* \"contracts/math/SafeMath.sol\":976:977   */\n      dup2\n        /* \"contracts/math/SafeMath.sol\":972:973   */\n      dup4\n        /* \"contracts/math/SafeMath.sol\":972:977   */\n      sub\n        /* \"contracts/math/SafeMath.sol\":965:977   */\n      swap1\n      pop\n        /* \"contracts/math/SafeMath.sol\":870:983   */\n      swap3\n      swap2\n      pop\n      pop\n      jump\t// out\n        /* \"contracts/math/SafeMath.sol\":1050:1177   */\n    tag_51:\n        /* \"contracts/math/SafeMath.sol\":1108:1117   */\n      0x0\n        /* \"contracts/math/SafeMath.sol\":1134:1135   */\n      dup2\n        /* \"contracts/math/SafeMath.sol\":1130:1131   */\n      dup4\n        /* \"contracts/math/SafeMath.sol\":1130:1135   */\n      add\n        /* \"contracts/math/SafeMath.sol\":1126:1135   */\n      swap1\n      pop\n        /* \"contracts/math/SafeMath.sol\":1154:1155   */\n      dup3\n        /* \"contracts/math/SafeMath.sol\":1149:1150   */\n      dup2\n        /* \"contracts/math/SafeMath.sol\":1149:1155   */\n      lt\n      iszero\n        /* \"contracts/math/SafeMath.sol\":1142:1156   */\n      iszero\n      iszero\n      tag_76\n      jumpi\n      invalid\n    tag_76:\n        /* \"contracts/math/SafeMath.sol\":1170:1171   */\n      dup1\n        /* \"contracts/math/SafeMath.sol\":1163:1171   */\n      swap1\n      pop\n        /* \"contracts/math/SafeMath.sol\":1050:1177   */\n      swap3\n      swap2\n      pop\n      pop\n      jump\t// out\n        /* \"contracts/token/ERC20/BurnableToken.sol\":451:898   */\n    tag_55:\n        /* \"contracts/token/ERC20/BurnableToken.sol\":530:538   */\n      0x0\n        /* \"contracts/token/ERC20/BurnableToken.sol\":530:544   */\n      dup1\n        /* \"contracts/token/ERC20/BurnableToken.sol\":539:543   */\n      dup4\n        /* \"contracts/token/ERC20/BurnableToken.sol\":530:544   */\n      0xffffffffffffffffffffffffffffffffffffffff\n      and\n      0xffffffffffffffffffffffffffffffffffffffff\n      and\n      dup2\n      mstore\n      0x20\n      add\n      swap1\n      dup2\n      mstore\n      0x20\n      add\n      0x0\n      keccak256\n      sload\n        /* \"contracts/token/ERC20/BurnableToken.sol\":520:526   */\n      dup2\n        /* \"contracts/token/ERC20/BurnableToken.sol\":520:544   */\n      gt\n      iszero\n        /* \"contracts/token/ERC20/BurnableToken.sol\":512:545   */\n      iszero\n      iszero\n      tag_78\n      jumpi\n      0x0\n      dup1\n      revert\n    tag_78:\n        /* \"contracts/token/ERC20/BurnableToken.sol\":744:770   */\n      tag_79\n        /* \"contracts/token/ERC20/BurnableToken.sol\":763:769   */\n      dup2\n        /* \"contracts/token/ERC20/BurnableToken.sol\":744:752   */\n      0x0\n        /* \"contracts/token/ERC20/BurnableToken.sol\":744:758   */\n      dup1\n        /* \"contracts/token/ERC20/BurnableToken.sol\":753:757   */\n      dup6\n        /* \"contracts/token/ERC20/BurnableToken.sol\":744:758   */\n      0xffffffffffffffffffffffffffffffffffffffff\n      and\n      0xffffffffffffffffffffffffffffffffffffffff\n      and\n      dup2\n      mstore\n      0x20\n      add\n      swap1\n      dup2\n      mstore\n      0x20\n      add\n      0x0\n      keccak256\n      sload\n        /* \"contracts/token/ERC20/BurnableToken.sol\":744:762   */\n      tag_49\n      swap1\n        /* \"contracts/token/ERC20/BurnableToken.sol\":744:770   */\n      swap2\n      swap1\n      0xffffffff\n      and\n      jump\t// in\n    tag_79:\n        /* \"contracts/token/ERC20/BurnableToken.sol\":727:735   */\n      0x0\n        /* \"contracts/token/ERC20/BurnableToken.sol\":727:741   */\n      dup1\n        /* \"contracts/token/ERC20/BurnableToken.sol\":736:740   */\n      dup5\n        /* \"contracts/token/ERC20/BurnableToken.sol\":727:741   */\n      0xffffffffffffffffffffffffffffffffffffffff\n      and\n      0xffffffffffffffffffffffffffffffffffffffff\n      and\n      dup2\n      mstore\n      0x20\n      add\n      swap1\n      dup2\n      mstore\n      0x20\n      add\n      0x0\n      keccak256\n        /* \"contracts/token/ERC20/BurnableToken.sol\":727:770   */\n      dup2\n      swap1\n      sstore\n      pop\n        /* \"contracts/token/ERC20/BurnableToken.sol\":792:816   */\n      tag_80\n        /* \"contracts/token/ERC20/BurnableToken.sol\":809:815   */\n      dup2\n        /* \"contracts/token/ERC20/BurnableToken.sol\":792:804   */\n      sload(0x1)\n        /* \"contracts/token/ERC20/BurnableToken.sol\":792:808   */\n      tag_49\n      swap1\n        /* \"contracts/token/ERC20/BurnableToken.sol\":792:816   */\n      swap2\n      swap1\n      0xffffffff\n      and\n      jump\t// in\n    tag_80:\n        /* \"contracts/token/ERC20/BurnableToken.sol\":777:789   */\n      0x1\n        /* \"contracts/token/ERC20/BurnableToken.sol\":777:816   */\n      dup2\n      swap1\n      sstore\n      pop\n        /* \"contracts/token/ERC20/BurnableToken.sol\":833:837   */\n      dup2\n        /* \"contracts/token/ERC20/BurnableToken.sol\":828:846   */\n      0xffffffffffffffffffffffffffffffffffffffff\n      and\n      0xcc16f5dbb4873280815c1ee09dbd06736cffcc184412cf7a71a0fdb75d397ca5\n        /* \"contracts/token/ERC20/BurnableToken.sol\":839:845   */\n      dup3\n        /* \"contracts/token/ERC20/BurnableToken.sol\":828:846   */\n      mload(0x40)\n      dup1\n      dup3\n      dup2\n      mstore\n      0x20\n      add\n      swap2\n      pop\n      pop\n      mload(0x40)\n      dup1\n      swap2\n      sub\n      swap1\n      log2\n        /* \"contracts/token/ERC20/BurnableToken.sol\":881:882   */\n      0x0\n        /* \"contracts/token/ERC20/BurnableToken.sol\":858:892   */\n      0xffffffffffffffffffffffffffffffffffffffff\n      and\n        /* \"contracts/token/ERC20/BurnableToken.sol\":867:871   */\n      dup3\n        /* \"contracts/token/ERC20/BurnableToken.sol\":858:892   */\n      0xffffffffffffffffffffffffffffffffffffffff\n      and\n      0xddf252ad1be2c89b69c2b068fc378daa952ba7f163c4a11628f55a4df523b3ef\n        /* \"contracts/token/ERC20/BurnableToken.sol\":885:891   */\n      dup4\n        /* \"contracts/token/ERC20/BurnableToken.sol\":858:892   */\n      mload(0x40)\n      dup1\n      dup3\n      dup2\n      mstore\n      0x20\n      add\n      swap2\n      pop\n      pop\n      mload(0x40)\n      dup1\n      swap2\n      sub\n      swap1\n      log3\n        /* \"contracts/token/ERC20/BurnableToken.sol\":451:898   */\n      pop\n      pop\n      jump\t// out\n\n    auxdata: 0xa165627a7a72305820764ce6b26f385cc0f5951ef52fc6b4e7fdb63602ea4e67a0fa052a9a8d068afa0029\n}\n",
    "bytecode": {
      "linkReferences": {},
      "object": "608060405234801561001057600080fd5b5061142f806100206000396000f3006080604052600436106100a4576000357c0100000000000000000000000000000000000000000000000000000000900463ffffffff168063095ea7b3146100a957806318160ddd1461010e57806323b872dd1461013957806342966c68146101be57806366188463146101eb57806370a082311461025057806379cc6790146102a7578063a9059cbb146102f4578063d73dd62314610359578063dd62ed3e146103be575b600080fd5b3480156100b557600080fd5b506100f4600480360381019080803573ffffffffffffffffffffffffffffffffffffffff16906020019092919080359060200190929190505050610435565b604051808215151515815260200191505060405180910390f35b34801561011a57600080fd5b50610123610527565b6040518082815260200191505060405180910390f35b34801561014557600080fd5b506101a4600480360381019080803573ffffffffffffffffffffffffffffffffffffffff169060200190929190803573ffffffffffffffffffffffffffffffffffffffff16906020019092919080359060200190929190505050610531565b604051808215151515815260200191505060405180910390f35b3480156101ca57600080fd5b506101e9600480360381019080803590602001909291905050506108eb565b005b3480156101f757600080fd5b50610236600480360381019080803573ffffffffffffffffffffffffffffffffffffffff169060200190929190803590602001909291905050506108f8565b604051808215151515815260200191505060405180910390f35b34801561025c57600080fd5b50610291600480360381019080803573ffffffffffffffffffffffffffffffffffffffff169060200190929190505050610b89565b6040518082815260200191505060405180910390f35b3480156102b357600080fd5b506102f2600480360381019080803573ffffffffffffffffffffffffffffffffffffffff16906020019092919080359060200190929190505050610bd1565b005b34801561030057600080fd5b5061033f600480360381019080803573ffffffffffffffffffffffffffffffffffffffff16906020019092919080359060200190929190505050610d79565b604051808215151515815260200191505060405180910390f35b34801561036557600080fd5b506103a4600480360381019080803573ffffffffffffffffffffffffffffffffffffffff16906020019092919080359060200190929190505050610f98565b604051808215151515815260200191505060405180910390f35b3480156103ca57600080fd5b5061041f600480360381019080803573ffffffffffffffffffffffffffffffffffffffff169060200190929190803573ffffffffffffffffffffffffffffffffffffffff169060200190929190505050611194565b6040518082815260200191505060405180910390f35b600081600260003373ffffffffffffffffffffffffffffffffffffffff1673ffffffffffffffffffffffffffffffffffffffff16815260200190815260200160002060008573ffffffffffffffffffffffffffffffffffffffff1673ffffffffffffffffffffffffffffffffffffffff168152602001908152602001600020819055508273ffffffffffffffffffffffffffffffffffffffff163373ffffffffffffffffffffffffffffffffffffffff167f8c5be1e5ebec7d5bd14f71427d1e84f3dd0314c0f7b2291e5b200ac8c7c3b925846040518082815260200191505060405180910390a36001905092915050565b6000600154905090565b60008073ffffffffffffffffffffffffffffffffffffffff168373ffffffffffffffffffffffffffffffffffffffff161415151561056e57600080fd5b6000808573ffffffffffffffffffffffffffffffffffffffff1673ffffffffffffffffffffffffffffffffffffffff1681526020019081526020016000205482111515156105bb57600080fd5b600260008573ffffffffffffffffffffffffffffffffffffffff1673ffffffffffffffffffffffffffffffffffffffff16815260200190815260200160002060003373ffffffffffffffffffffffffffffffffffffffff1673ffffffffffffffffffffffffffffffffffffffff16815260200190815260200160002054821115151561064657600080fd5b610697826000808773ffffffffffffffffffffffffffffffffffffffff1673ffffffffffffffffffffffffffffffffffffffff1681526020019081526020016000205461121b90919063ffffffff16565b6000808673ffffffffffffffffffffffffffffffffffffffff1673ffffffffffffffffffffffffffffffffffffffff1681526020019081526020016000208190555061072a826000808673ffffffffffffffffffffffffffffffffffffffff1673ffffffffffffffffffffffffffffffffffffffff1681526020019081526020016000205461123490919063ffffffff16565b6000808573ffffffffffffffffffffffffffffffffffffffff1673ffffffffffffffffffffffffffffffffffffffff168152602001908152602001600020819055506107fb82600260008773ffffffffffffffffffffffffffffffffffffffff1673ffffffffffffffffffffffffffffffffffffffff16815260200190815260200160002060003373ffffffffffffffffffffffffffffffffffffffff1673ffffffffffffffffffffffffffffffffffffffff1681526020019081526020016000205461121b90919063ffffffff16565b600260008673ffffffffffffffffffffffffffffffffffffffff1673ffffffffffffffffffffffffffffffffffffffff16815260200190815260200160002060003373ffffffffffffffffffffffffffffffffffffffff1673ffffffffffffffffffffffffffffffffffffffff168152602001908152602001600020819055508273ffffffffffffffffffffffffffffffffffffffff168473ffffffffffffffffffffffffffffffffffffffff167fddf252ad1be2c89b69c2b068fc378daa952ba7f163c4a11628f55a4df523b3ef846040518082815260200191505060405180910390a3600190509392505050565b6108f53382611250565b50565b600080600260003373ffffffffffffffffffffffffffffffffffffffff1673ffffffffffffffffffffffffffffffffffffffff16815260200190815260200160002060008573ffffffffffffffffffffffffffffffffffffffff1673ffffffffffffffffffffffffffffffffffffffff16815260200190815260200160002054905080831115610a09576000600260003373ffffffffffffffffffffffffffffffffffffffff1673ffffffffffffffffffffffffffffffffffffffff16815260200190815260200160002060008673ffffffffffffffffffffffffffffffffffffffff1673ffffffffffffffffffffffffffffffffffffffff16815260200190815260200160002081905550610a9d565b610a1c838261121b90919063ffffffff16565b600260003373ffffffffffffffffffffffffffffffffffffffff1673ffffffffffffffffffffffffffffffffffffffff16815260200190815260200160002060008673ffffffffffffffffffffffffffffffffffffffff1673ffffffffffffffffffffffffffffffffffffffff168152602001908152602001600020819055505b8373ffffffffffffffffffffffffffffffffffffffff163373ffffffffffffffffffffffffffffffffffffffff167f8c5be1e5ebec7d5bd14f71427d1e84f3dd0314c0f7b2291e5b200ac8c7c3b925600260003373ffffffffffffffffffffffffffffffffffffffff1673ffffffffffffffffffffffffffffffffffffffff16815260200190815260200160002060008873ffffffffffffffffffffffffffffffffffffffff1673ffffffffffffffffffffffffffffffffffffffff168152602001908152602001600020546040518082815260200191505060405180910390a3600191505092915050565b60008060008373ffffffffffffffffffffffffffffffffffffffff1673ffffffffffffffffffffffffffffffffffffffff168152602001908152602001600020549050919050565b600260008373ffffffffffffffffffffffffffffffffffffffff1673ffffffffffffffffffffffffffffffffffffffff16815260200190815260200160002060003373ffffffffffffffffffffffffffffffffffffffff1673ffffffffffffffffffffffffffffffffffffffff168152602001908152602001600020548111151515610c5c57600080fd5b610ceb81600260008573ffffffffffffffffffffffffffffffffffffffff1673ffffffffffffffffffffffffffffffffffffffff16815260200190815260200160002060003373ffffffffffffffffffffffffffffffffffffffff1673ffffffffffffffffffffffffffffffffffffffff1681526020019081526020016000205461121b90919063ffffffff16565b600260008473ffffffffffffffffffffffffffffffffffffffff1673ffffffffffffffffffffffffffffffffffffffff16815260200190815260200160002060003373ffffffffffffffffffffffffffffffffffffffff1673ffffffffffffffffffffffffffffffffffffffff16815260200190815260200160002081905550610d758282611250565b5050565b60008073ffffffffffffffffffffffffffffffffffffffff168373ffffffffffffffffffffffffffffffffffffffff1614151515610db657600080fd5b6000803373ffffffffffffffffffffffffffffffffffffffff1673ffffffffffffffffffffffffffffffffffffffff168152602001908152602001600020548211151515610e0357600080fd5b610e54826000803373ffffffffffffffffffffffffffffffffffffffff1673ffffffffffffffffffffffffffffffffffffffff1681526020019081526020016000205461121b90919063ffffffff16565b6000803373ffffffffffffffffffffffffffffffffffffffff1673ffffffffffffffffffffffffffffffffffffffff16815260200190815260200160002081905550610ee7826000808673ffffffffffffffffffffffffffffffffffffffff1673ffffffffffffffffffffffffffffffffffffffff1681526020019081526020016000205461123490919063ffffffff16565b6000808573ffffffffffffffffffffffffffffffffffffffff1673ffffffffffffffffffffffffffffffffffffffff168152602001908152602001600020819055508273ffffffffffffffffffffffffffffffffffffffff163373ffffffffffffffffffffffffffffffffffffffff167fddf252ad1be2c89b69c2b068fc378daa952ba7f163c4a11628f55a4df523b3ef846040518082815260200191505060405180910390a36001905092915050565b600061102982600260003373ffffffffffffffffffffffffffffffffffffffff1673ffffffffffffffffffffffffffffffffffffffff16815260200190815260200160002060008673ffffffffffffffffffffffffffffffffffffffff1673ffffffffffffffffffffffffffffffffffffffff1681526020019081526020016000205461123490919063ffffffff16565b600260003373ffffffffffffffffffffffffffffffffffffffff1673ffffffffffffffffffffffffffffffffffffffff16815260200190815260200160002060008573ffffffffffffffffffffffffffffffffffffffff1673ffffffffffffffffffffffffffffffffffffffff168152602001908152602001600020819055508273ffffffffffffffffffffffffffffffffffffffff163373ffffffffffffffffffffffffffffffffffffffff167f8c5be1e5ebec7d5bd14f71427d1e84f3dd0314c0f7b2291e5b200ac8c7c3b925600260003373ffffffffffffffffffffffffffffffffffffffff1673ffffffffffffffffffffffffffffffffffffffff16815260200190815260200160002060008773ffffffffffffffffffffffffffffffffffffffff1673ffffffffffffffffffffffffffffffffffffffff168152602001908152602001600020546040518082815260200191505060405180910390a36001905092915050565b6000600260008473ffffffffffffffffffffffffffffffffffffffff1673ffffffffffffffffffffffffffffffffffffffff16815260200190815260200160002060008373ffffffffffffffffffffffffffffffffffffffff1673ffffffffffffffffffffffffffffffffffffffff16815260200190815260200160002054905092915050565b600082821115151561122957fe5b818303905092915050565b6000818301905082811015151561124757fe5b80905092915050565b6000808373ffffffffffffffffffffffffffffffffffffffff1673ffffffffffffffffffffffffffffffffffffffff16815260200190815260200160002054811115151561129d57600080fd5b6112ee816000808573ffffffffffffffffffffffffffffffffffffffff1673ffffffffffffffffffffffffffffffffffffffff1681526020019081526020016000205461121b90919063ffffffff16565b6000808473ffffffffffffffffffffffffffffffffffffffff1673ffffffffffffffffffffffffffffffffffffffff168152602001908152602001600020819055506113458160015461121b90919063ffffffff16565b6001819055508173ffffffffffffffffffffffffffffffffffffffff167fcc16f5dbb4873280815c1ee09dbd06736cffcc184412cf7a71a0fdb75d397ca5826040518082815260200191505060405180910390a2600073ffffffffffffffffffffffffffffffffffffffff168273ffffffffffffffffffffffffffffffffffffffff167fddf252ad1be2c89b69c2b068fc378daa952ba7f163c4a11628f55a4df523b3ef836040518082815260200191505060405180910390a350505600a165627a7a72305820764ce6b26f385cc0f5951ef52fc6b4e7fdb63602ea4e67a0fa052a9a8d068afa0029",
      "opcodes": "PUSH1 0x80 PUSH1 0x40 MSTORE CALLVALUE DUP1 ISZERO PUSH2 0x10 JUMPI PUSH1 0x0 DUP1 REVERT JUMPDEST POP PUSH2 0x142F DUP1 PUSH2 0x20 PUSH1 0x0 CODECOPY PUSH1 0x0 RETURN STOP PUSH1 0x80 PUSH1 0x40 MSTORE PUSH1 0x4 CALLDATASIZE LT PUSH2 0xA4 JUMPI PUSH1 0x0 CALLDATALOAD PUSH29 0x100000000000000000000000000000000000000000000000000000000 SWAP1 DIV PUSH4 0xFFFFFFFF AND DUP1 PUSH4 0x95EA7B3 EQ PUSH2 0xA9 JUMPI DUP1 PUSH4 0x18160DDD EQ PUSH2 0x10E JUMPI DUP1 PUSH4 0x23B872DD EQ PUSH2 0x139 JUMPI DUP1 PUSH4 0x42966C68 EQ PUSH2 0x1BE JUMPI DUP1 PUSH4 0x66188463 EQ PUSH2 0x1EB JUMPI DUP1 PUSH4 0x70A08231 EQ PUSH2 0x250 JUMPI DUP1 PUSH4 0x79CC6790 EQ PUSH2 0x2A7 JUMPI DUP1 PUSH4 0xA9059CBB EQ PUSH2 0x2F4 JUMPI DUP1 PUSH4 0xD73DD623 EQ PUSH2 0x359 JUMPI DUP1 PUSH4 0xDD62ED3E EQ PUSH2 0x3BE JUMPI JUMPDEST PUSH1 0x0 DUP1 REVERT JUMPDEST CALLVALUE DUP1 ISZERO PUSH2 0xB5 JUMPI PUSH1 0x0 DUP1 REVERT JUMPDEST POP PUSH2 0xF4 PUSH1 0x4 DUP1 CALLDATASIZE SUB DUP2 ADD SWAP1 DUP1 DUP1 CALLDATALOAD PUSH20 0xFFFFFFFFFFFFFFFFFFFFFFFFFFFFFFFFFFFFFFFF AND SWAP1 PUSH1 0x20 ADD SWAP1 SWAP3 SWAP2 SWAP1 DUP1 CALLDATALOAD SWAP1 PUSH1 0x20 ADD SWAP1 SWAP3 SWAP2 SWAP1 POP POP POP PUSH2 0x435 JUMP JUMPDEST PUSH1 0x40 MLOAD DUP1 DUP3 ISZERO ISZERO ISZERO ISZERO DUP2 MSTORE PUSH1 0x20 ADD SWAP2 POP POP PUSH1 0x40 MLOAD DUP1 SWAP2 SUB SWAP1 RETURN JUMPDEST CALLVALUE DUP1 ISZERO PUSH2 0x11A JUMPI PUSH1 0x0 DUP1 REVERT JUMPDEST POP PUSH2 0x123 PUSH2 0x527 JUMP JUMPDEST PUSH1 0x40 MLOAD DUP1 DUP3 DUP2 MSTORE PUSH1 0x20 ADD SWAP2 POP POP PUSH1 0x40 MLOAD DUP1 SWAP2 SUB SWAP1 RETURN JUMPDEST CALLVALUE DUP1 ISZERO PUSH2 0x145 JUMPI PUSH1 0x0 DUP1 REVERT JUMPDEST POP PUSH2 0x1A4 PUSH1 0x4 DUP1 CALLDATASIZE SUB DUP2 ADD SWAP1 DUP1 DUP1 CALLDATALOAD PUSH20 0xFFFFFFFFFFFFFFFFFFFFFFFFFFFFFFFFFFFFFFFF AND SWAP1 PUSH1 0x20 ADD SWAP1 SWAP3 SWAP2 SWAP1 DUP1 CALLDATALOAD PUSH20 0xFFFFFFFFFFFFFFFFFFFFFFFFFFFFFFFFFFFFFFFF AND SWAP1 PUSH1 0x20 ADD SWAP1 SWAP3 SWAP2 SWAP1 DUP1 CALLDATALOAD SWAP1 PUSH1 0x20 ADD SWAP1 SWAP3 SWAP2 SWAP1 POP POP POP PUSH2 0x531 JUMP JUMPDEST PUSH1 0x40 MLOAD DUP1 DUP3 ISZERO ISZERO ISZERO ISZERO DUP2 MSTORE PUSH1 0x20 ADD SWAP2 POP POP PUSH1 0x40 MLOAD DUP1 SWAP2 SUB SWAP1 RETURN JUMPDEST CALLVALUE DUP1 ISZERO PUSH2 0x1CA JUMPI PUSH1 0x0 DUP1 REVERT JUMPDEST POP PUSH2 0x1E9 PUSH1 0x4 DUP1 CALLDATASIZE SUB DUP2 ADD SWAP1 DUP1 DUP1 CALLDATALOAD SWAP1 PUSH1 0x20 ADD SWAP1 SWAP3 SWAP2 SWAP1 POP POP POP PUSH2 0x8EB JUMP JUMPDEST STOP JUMPDEST CALLVALUE DUP1 ISZERO PUSH2 0x1F7 JUMPI PUSH1 0x0 DUP1 REVERT JUMPDEST POP PUSH2 0x236 PUSH1 0x4 DUP1 CALLDATASIZE SUB DUP2 ADD SWAP1 DUP1 DUP1 CALLDATALOAD PUSH20 0xFFFFFFFFFFFFFFFFFFFFFFFFFFFFFFFFFFFFFFFF AND SWAP1 PUSH1 0x20 ADD SWAP1 SWAP3 SWAP2 SWAP1 DUP1 CALLDATALOAD SWAP1 PUSH1 0x20 ADD SWAP1 SWAP3 SWAP2 SWAP1 POP POP POP PUSH2 0x8F8 JUMP JUMPDEST PUSH1 0x40 MLOAD DUP1 DUP3 ISZERO ISZERO ISZERO ISZERO DUP2 MSTORE PUSH1 0x20 ADD SWAP2 POP POP PUSH1 0x40 MLOAD DUP1 SWAP2 SUB SWAP1 RETURN JUMPDEST CALLVALUE DUP1 ISZERO PUSH2 0x25C JUMPI PUSH1 0x0 DUP1 REVERT JUMPDEST POP PUSH2 0x291 PUSH1 0x4 DUP1 CALLDATASIZE SUB DUP2 ADD SWAP1 DUP1 DUP1 CALLDATALOAD PUSH20 0xFFFFFFFFFFFFFFFFFFFFFFFFFFFFFFFFFFFFFFFF AND SWAP1 PUSH1 0x20 ADD SWAP1 SWAP3 SWAP2 SWAP1 POP POP POP PUSH2 0xB89 JUMP JUMPDEST PUSH1 0x40 MLOAD DUP1 DUP3 DUP2 MSTORE PUSH1 0x20 ADD SWAP2 POP POP PUSH1 0x40 MLOAD DUP1 SWAP2 SUB SWAP1 RETURN JUMPDEST CALLVALUE DUP1 ISZERO PUSH2 0x2B3 JUMPI PUSH1 0x0 DUP1 REVERT JUMPDEST POP PUSH2 0x2F2 PUSH1 0x4 DUP1 CALLDATASIZE SUB DUP2 ADD SWAP1 DUP1 DUP1 CALLDATALOAD PUSH20 0xFFFFFFFFFFFFFFFFFFFFFFFFFFFFFFFFFFFFFFFF AND SWAP1 PUSH1 0x20 ADD SWAP1 SWAP3 SWAP2 SWAP1 DUP1 CALLDATALOAD SWAP1 PUSH1 0x20 ADD SWAP1 SWAP3 SWAP2 SWAP1 POP POP POP PUSH2 0xBD1 JUMP JUMPDEST STOP JUMPDEST CALLVALUE DUP1 ISZERO PUSH2 0x300 JUMPI PUSH1 0x0 DUP1 REVERT JUMPDEST POP PUSH2 0x33F PUSH1 0x4 DUP1 CALLDATASIZE SUB DUP2 ADD SWAP1 DUP1 DUP1 CALLDATALOAD PUSH20 0xFFFFFFFFFFFFFFFFFFFFFFFFFFFFFFFFFFFFFFFF AND SWAP1 PUSH1 0x20 ADD SWAP1 SWAP3 SWAP2 SWAP1 DUP1 CALLDATALOAD SWAP1 PUSH1 0x20 ADD SWAP1 SWAP3 SWAP2 SWAP1 POP POP POP PUSH2 0xD79 JUMP JUMPDEST PUSH1 0x40 MLOAD DUP1 DUP3 ISZERO ISZERO ISZERO ISZERO DUP2 MSTORE PUSH1 0x20 ADD SWAP2 POP POP PUSH1 0x40 MLOAD DUP1 SWAP2 SUB SWAP1 RETURN JUMPDEST CALLVALUE DUP1 ISZERO PUSH2 0x365 JUMPI PUSH1 0x0 DUP1 REVERT JUMPDEST POP PUSH2 0x3A4 PUSH1 0x4 DUP1 CALLDATASIZE SUB DUP2 ADD SWAP1 DUP1 DUP1 CALLDATALOAD PUSH20 0xFFFFFFFFFFFFFFFFFFFFFFFFFFFFFFFFFFFFFFFF AND SWAP1 PUSH1 0x20 ADD SWAP1 SWAP3 SWAP2 SWAP1 DUP1 CALLDATALOAD SWAP1 PUSH1 0x20 ADD SWAP1 SWAP3 SWAP2 SWAP1 POP POP POP PUSH2 0xF98 JUMP JUMPDEST PUSH1 0x40 MLOAD DUP1 DUP3 ISZERO ISZERO ISZERO ISZERO DUP2 MSTORE PUSH1 0x20 ADD SWAP2 POP POP PUSH1 0x40 MLOAD DUP1 SWAP2 SUB SWAP1 RETURN JUMPDEST CALLVALUE DUP1 ISZERO PUSH2 0x3CA JUMPI PUSH1 0x0 DUP1 REVERT JUMPDEST POP PUSH2 0x41F PUSH1 0x4 DUP1 CALLDATASIZE SUB DUP2 ADD SWAP1 DUP1 DUP1 CALLDATALOAD PUSH20 0xFFFFFFFFFFFFFFFFFFFFFFFFFFFFFFFFFFFFFFFF AND SWAP1 PUSH1 0x20 ADD SWAP1 SWAP3 SWAP2 SWAP1 DUP1 CALLDATALOAD PUSH20 0xFFFFFFFFFFFFFFFFFFFFFFFFFFFFFFFFFFFFFFFF AND SWAP1 PUSH1 0x20 ADD SWAP1 SWAP3 SWAP2 SWAP1 POP POP POP PUSH2 0x1194 JUMP JUMPDEST PUSH1 0x40 MLOAD DUP1 DUP3 DUP2 MSTORE PUSH1 0x20 ADD SWAP2 POP POP PUSH1 0x40 MLOAD DUP1 SWAP2 SUB SWAP1 RETURN JUMPDEST PUSH1 0x0 DUP2 PUSH1 0x2 PUSH1 0x0 CALLER PUSH20 0xFFFFFFFFFFFFFFFFFFFFFFFFFFFFFFFFFFFFFFFF AND PUSH20 0xFFFFFFFFFFFFFFFFFFFFFFFFFFFFFFFFFFFFFFFF AND DUP2 MSTORE PUSH1 0x20 ADD SWAP1 DUP2 MSTORE PUSH1 0x20 ADD PUSH1 0x0 KECCAK256 PUSH1 0x0 DUP6 PUSH20 0xFFFFFFFFFFFFFFFFFFFFFFFFFFFFFFFFFFFFFFFF AND PUSH20 0xFFFFFFFFFFFFFFFFFFFFFFFFFFFFFFFFFFFFFFFF AND DUP2 MSTORE PUSH1 0x20 ADD SWAP1 DUP2 MSTORE PUSH1 0x20 ADD PUSH1 0x0 KECCAK256 DUP2 SWAP1 SSTORE POP DUP3 PUSH20 0xFFFFFFFFFFFFFFFFFFFFFFFFFFFFFFFFFFFFFFFF AND CALLER PUSH20 0xFFFFFFFFFFFFFFFFFFFFFFFFFFFFFFFFFFFFFFFF AND PUSH32 0x8C5BE1E5EBEC7D5BD14F71427D1E84F3DD0314C0F7B2291E5B200AC8C7C3B925 DUP5 PUSH1 0x40 MLOAD DUP1 DUP3 DUP2 MSTORE PUSH1 0x20 ADD SWAP2 POP POP PUSH1 0x40 MLOAD DUP1 SWAP2 SUB SWAP1 LOG3 PUSH1 0x1 SWAP1 POP SWAP3 SWAP2 POP POP JUMP JUMPDEST PUSH1 0x0 PUSH1 0x1 SLOAD SWAP1 POP SWAP1 JUMP JUMPDEST PUSH1 0x0 DUP1 PUSH20 0xFFFFFFFFFFFFFFFFFFFFFFFFFFFFFFFFFFFFFFFF AND DUP4 PUSH20 0xFFFFFFFFFFFFFFFFFFFFFFFFFFFFFFFFFFFFFFFF AND EQ ISZERO ISZERO ISZERO PUSH2 0x56E JUMPI PUSH1 0x0 DUP1 REVERT JUMPDEST PUSH1 0x0 DUP1 DUP6 PUSH20 0xFFFFFFFFFFFFFFFFFFFFFFFFFFFFFFFFFFFFFFFF AND PUSH20 0xFFFFFFFFFFFFFFFFFFFFFFFFFFFFFFFFFFFFFFFF AND DUP2 MSTORE PUSH1 0x20 ADD SWAP1 DUP2 MSTORE PUSH1 0x20 ADD PUSH1 0x0 KECCAK256 SLOAD DUP3 GT ISZERO ISZERO ISZERO PUSH2 0x5BB JUMPI PUSH1 0x0 DUP1 REVERT JUMPDEST PUSH1 0x2 PUSH1 0x0 DUP6 PUSH20 0xFFFFFFFFFFFFFFFFFFFFFFFFFFFFFFFFFFFFFFFF AND PUSH20 0xFFFFFFFFFFFFFFFFFFFFFFFFFFFFFFFFFFFFFFFF AND DUP2 MSTORE PUSH1 0x20 ADD SWAP1 DUP2 MSTORE PUSH1 0x20 ADD PUSH1 0x0 KECCAK256 PUSH1 0x0 CALLER PUSH20 0xFFFFFFFFFFFFFFFFFFFFFFFFFFFFFFFFFFFFFFFF AND PUSH20 0xFFFFFFFFFFFFFFFFFFFFFFFFFFFFFFFFFFFFFFFF AND DUP2 MSTORE PUSH1 0x20 ADD SWAP1 DUP2 MSTORE PUSH1 0x20 ADD PUSH1 0x0 KECCAK256 SLOAD DUP3 GT ISZERO ISZERO ISZERO PUSH2 0x646 JUMPI PUSH1 0x0 DUP1 REVERT JUMPDEST PUSH2 0x697 DUP3 PUSH1 0x0 DUP1 DUP8 PUSH20 0xFFFFFFFFFFFFFFFFFFFFFFFFFFFFFFFFFFFFFFFF AND PUSH20 0xFFFFFFFFFFFFFFFFFFFFFFFFFFFFFFFFFFFFFFFF AND DUP2 MSTORE PUSH1 0x20 ADD SWAP1 DUP2 MSTORE PUSH1 0x20 ADD PUSH1 0x0 KECCAK256 SLOAD PUSH2 0x121B SWAP1 SWAP2 SWAP1 PUSH4 0xFFFFFFFF AND JUMP JUMPDEST PUSH1 0x0 DUP1 DUP7 PUSH20 0xFFFFFFFFFFFFFFFFFFFFFFFFFFFFFFFFFFFFFFFF AND PUSH20 0xFFFFFFFFFFFFFFFFFFFFFFFFFFFFFFFFFFFFFFFF AND DUP2 MSTORE PUSH1 0x20 ADD SWAP1 DUP2 MSTORE PUSH1 0x20 ADD PUSH1 0x0 KECCAK256 DUP2 SWAP1 SSTORE POP PUSH2 0x72A DUP3 PUSH1 0x0 DUP1 DUP7 PUSH20 0xFFFFFFFFFFFFFFFFFFFFFFFFFFFFFFFFFFFFFFFF AND PUSH20 0xFFFFFFFFFFFFFFFFFFFFFFFFFFFFFFFFFFFFFFFF AND DUP2 MSTORE PUSH1 0x20 ADD SWAP1 DUP2 MSTORE PUSH1 0x20 ADD PUSH1 0x0 KECCAK256 SLOAD PUSH2 0x1234 SWAP1 SWAP2 SWAP1 PUSH4 0xFFFFFFFF AND JUMP JUMPDEST PUSH1 0x0 DUP1 DUP6 PUSH20 0xFFFFFFFFFFFFFFFFFFFFFFFFFFFFFFFFFFFFFFFF AND PUSH20 0xFFFFFFFFFFFFFFFFFFFFFFFFFFFFFFFFFFFFFFFF AND DUP2 MSTORE PUSH1 0x20 ADD SWAP1 DUP2 MSTORE PUSH1 0x20 ADD PUSH1 0x0 KECCAK256 DUP2 SWAP1 SSTORE POP PUSH2 0x7FB DUP3 PUSH1 0x2 PUSH1 0x0 DUP8 PUSH20 0xFFFFFFFFFFFFFFFFFFFFFFFFFFFFFFFFFFFFFFFF AND PUSH20 0xFFFFFFFFFFFFFFFFFFFFFFFFFFFFFFFFFFFFFFFF AND DUP2 MSTORE PUSH1 0x20 ADD SWAP1 DUP2 MSTORE PUSH1 0x20 ADD PUSH1 0x0 KECCAK256 PUSH1 0x0 CALLER PUSH20 0xFFFFFFFFFFFFFFFFFFFFFFFFFFFFFFFFFFFFFFFF AND PUSH20 0xFFFFFFFFFFFFFFFFFFFFFFFFFFFFFFFFFFFFFFFF AND DUP2 MSTORE PUSH1 0x20 ADD SWAP1 DUP2 MSTORE PUSH1 0x20 ADD PUSH1 0x0 KECCAK256 SLOAD PUSH2 0x121B SWAP1 SWAP2 SWAP1 PUSH4 0xFFFFFFFF AND JUMP JUMPDEST PUSH1 0x2 PUSH1 0x0 DUP7 PUSH20 0xFFFFFFFFFFFFFFFFFFFFFFFFFFFFFFFFFFFFFFFF AND PUSH20 0xFFFFFFFFFFFFFFFFFFFFFFFFFFFFFFFFFFFFFFFF AND DUP2 MSTORE PUSH1 0x20 ADD SWAP1 DUP2 MSTORE PUSH1 0x20 ADD PUSH1 0x0 KECCAK256 PUSH1 0x0 CALLER PUSH20 0xFFFFFFFFFFFFFFFFFFFFFFFFFFFFFFFFFFFFFFFF AND PUSH20 0xFFFFFFFFFFFFFFFFFFFFFFFFFFFFFFFFFFFFFFFF AND DUP2 MSTORE PUSH1 0x20 ADD SWAP1 DUP2 MSTORE PUSH1 0x20 ADD PUSH1 0x0 KECCAK256 DUP2 SWAP1 SSTORE POP DUP3 PUSH20 0xFFFFFFFFFFFFFFFFFFFFFFFFFFFFFFFFFFFFFFFF AND DUP5 PUSH20 0xFFFFFFFFFFFFFFFFFFFFFFFFFFFFFFFFFFFFFFFF AND PUSH32 0xDDF252AD1BE2C89B69C2B068FC378DAA952BA7F163C4A11628F55A4DF523B3EF DUP5 PUSH1 0x40 MLOAD DUP1 DUP3 DUP2 MSTORE PUSH1 0x20 ADD SWAP2 POP POP PUSH1 0x40 MLOAD DUP1 SWAP2 SUB SWAP1 LOG3 PUSH1 0x1 SWAP1 POP SWAP4 SWAP3 POP POP POP JUMP JUMPDEST PUSH2 0x8F5 CALLER DUP3 PUSH2 0x1250 JUMP JUMPDEST POP JUMP JUMPDEST PUSH1 0x0 DUP1 PUSH1 0x2 PUSH1 0x0 CALLER PUSH20 0xFFFFFFFFFFFFFFFFFFFFFFFFFFFFFFFFFFFFFFFF AND PUSH20 0xFFFFFFFFFFFFFFFFFFFFFFFFFFFFFFFFFFFFFFFF AND DUP2 MSTORE PUSH1 0x20 ADD SWAP1 DUP2 MSTORE PUSH1 0x20 ADD PUSH1 0x0 KECCAK256 PUSH1 0x0 DUP6 PUSH20 0xFFFFFFFFFFFFFFFFFFFFFFFFFFFFFFFFFFFFFFFF AND PUSH20 0xFFFFFFFFFFFFFFFFFFFFFFFFFFFFFFFFFFFFFFFF AND DUP2 MSTORE PUSH1 0x20 ADD SWAP1 DUP2 MSTORE PUSH1 0x20 ADD PUSH1 0x0 KECCAK256 SLOAD SWAP1 POP DUP1 DUP4 GT ISZERO PUSH2 0xA09 JUMPI PUSH1 0x0 PUSH1 0x2 PUSH1 0x0 CALLER PUSH20 0xFFFFFFFFFFFFFFFFFFFFFFFFFFFFFFFFFFFFFFFF AND PUSH20 0xFFFFFFFFFFFFFFFFFFFFFFFFFFFFFFFFFFFFFFFF AND DUP2 MSTORE PUSH1 0x20 ADD SWAP1 DUP2 MSTORE PUSH1 0x20 ADD PUSH1 0x0 KECCAK256 PUSH1 0x0 DUP7 PUSH20 0xFFFFFFFFFFFFFFFFFFFFFFFFFFFFFFFFFFFFFFFF AND PUSH20 0xFFFFFFFFFFFFFFFFFFFFFFFFFFFFFFFFFFFFFFFF AND DUP2 MSTORE PUSH1 0x20 ADD SWAP1 DUP2 MSTORE PUSH1 0x20 ADD PUSH1 0x0 KECCAK256 DUP2 SWAP1 SSTORE POP PUSH2 0xA9D JUMP JUMPDEST PUSH2 0xA1C DUP4 DUP3 PUSH2 0x121B SWAP1 SWAP2 SWAP1 PUSH4 0xFFFFFFFF AND JUMP JUMPDEST PUSH1 0x2 PUSH1 0x0 CALLER PUSH20 0xFFFFFFFFFFFFFFFFFFFFFFFFFFFFFFFFFFFFFFFF AND PUSH20 0xFFFFFFFFFFFFFFFFFFFFFFFFFFFFFFFFFFFFFFFF AND DUP2 MSTORE PUSH1 0x20 ADD SWAP1 DUP2 MSTORE PUSH1 0x20 ADD PUSH1 0x0 KECCAK256 PUSH1 0x0 DUP7 PUSH20 0xFFFFFFFFFFFFFFFFFFFFFFFFFFFFFFFFFFFFFFFF AND PUSH20 0xFFFFFFFFFFFFFFFFFFFFFFFFFFFFFFFFFFFFFFFF AND DUP2 MSTORE PUSH1 0x20 ADD SWAP1 DUP2 MSTORE PUSH1 0x20 ADD PUSH1 0x0 KECCAK256 DUP2 SWAP1 SSTORE POP JUMPDEST DUP4 PUSH20 0xFFFFFFFFFFFFFFFFFFFFFFFFFFFFFFFFFFFFFFFF AND CALLER PUSH20 0xFFFFFFFFFFFFFFFFFFFFFFFFFFFFFFFFFFFFFFFF AND PUSH32 0x8C5BE1E5EBEC7D5BD14F71427D1E84F3DD0314C0F7B2291E5B200AC8C7C3B925 PUSH1 0x2 PUSH1 0x0 CALLER PUSH20 0xFFFFFFFFFFFFFFFFFFFFFFFFFFFFFFFFFFFFFFFF AND PUSH20 0xFFFFFFFFFFFFFFFFFFFFFFFFFFFFFFFFFFFFFFFF AND DUP2 MSTORE PUSH1 0x20 ADD SWAP1 DUP2 MSTORE PUSH1 0x20 ADD PUSH1 0x0 KECCAK256 PUSH1 0x0 DUP9 PUSH20 0xFFFFFFFFFFFFFFFFFFFFFFFFFFFFFFFFFFFFFFFF AND PUSH20 0xFFFFFFFFFFFFFFFFFFFFFFFFFFFFFFFFFFFFFFFF AND DUP2 MSTORE PUSH1 0x20 ADD SWAP1 DUP2 MSTORE PUSH1 0x20 ADD PUSH1 0x0 KECCAK256 SLOAD PUSH1 0x40 MLOAD DUP1 DUP3 DUP2 MSTORE PUSH1 0x20 ADD SWAP2 POP POP PUSH1 0x40 MLOAD DUP1 SWAP2 SUB SWAP1 LOG3 PUSH1 0x1 SWAP2 POP POP SWAP3 SWAP2 POP POP JUMP JUMPDEST PUSH1 0x0 DUP1 PUSH1 0x0 DUP4 PUSH20 0xFFFFFFFFFFFFFFFFFFFFFFFFFFFFFFFFFFFFFFFF AND PUSH20 0xFFFFFFFFFFFFFFFFFFFFFFFFFFFFFFFFFFFFFFFF AND DUP2 MSTORE PUSH1 0x20 ADD SWAP1 DUP2 MSTORE PUSH1 0x20 ADD PUSH1 0x0 KECCAK256 SLOAD SWAP1 POP SWAP2 SWAP1 POP JUMP JUMPDEST PUSH1 0x2 PUSH1 0x0 DUP4 PUSH20 0xFFFFFFFFFFFFFFFFFFFFFFFFFFFFFFFFFFFFFFFF AND PUSH20 0xFFFFFFFFFFFFFFFFFFFFFFFFFFFFFFFFFFFFFFFF AND DUP2 MSTORE PUSH1 0x20 ADD SWAP1 DUP2 MSTORE PUSH1 0x20 ADD PUSH1 0x0 KECCAK256 PUSH1 0x0 CALLER PUSH20 0xFFFFFFFFFFFFFFFFFFFFFFFFFFFFFFFFFFFFFFFF AND PUSH20 0xFFFFFFFFFFFFFFFFFFFFFFFFFFFFFFFFFFFFFFFF AND DUP2 MSTORE PUSH1 0x20 ADD SWAP1 DUP2 MSTORE PUSH1 0x20 ADD PUSH1 0x0 KECCAK256 SLOAD DUP2 GT ISZERO ISZERO ISZERO PUSH2 0xC5C JUMPI PUSH1 0x0 DUP1 REVERT JUMPDEST PUSH2 0xCEB DUP2 PUSH1 0x2 PUSH1 0x0 DUP6 PUSH20 0xFFFFFFFFFFFFFFFFFFFFFFFFFFFFFFFFFFFFFFFF AND PUSH20 0xFFFFFFFFFFFFFFFFFFFFFFFFFFFFFFFFFFFFFFFF AND DUP2 MSTORE PUSH1 0x20 ADD SWAP1 DUP2 MSTORE PUSH1 0x20 ADD PUSH1 0x0 KECCAK256 PUSH1 0x0 CALLER PUSH20 0xFFFFFFFFFFFFFFFFFFFFFFFFFFFFFFFFFFFFFFFF AND PUSH20 0xFFFFFFFFFFFFFFFFFFFFFFFFFFFFFFFFFFFFFFFF AND DUP2 MSTORE PUSH1 0x20 ADD SWAP1 DUP2 MSTORE PUSH1 0x20 ADD PUSH1 0x0 KECCAK256 SLOAD PUSH2 0x121B SWAP1 SWAP2 SWAP1 PUSH4 0xFFFFFFFF AND JUMP JUMPDEST PUSH1 0x2 PUSH1 0x0 DUP5 PUSH20 0xFFFFFFFFFFFFFFFFFFFFFFFFFFFFFFFFFFFFFFFF AND PUSH20 0xFFFFFFFFFFFFFFFFFFFFFFFFFFFFFFFFFFFFFFFF AND DUP2 MSTORE PUSH1 0x20 ADD SWAP1 DUP2 MSTORE PUSH1 0x20 ADD PUSH1 0x0 KECCAK256 PUSH1 0x0 CALLER PUSH20 0xFFFFFFFFFFFFFFFFFFFFFFFFFFFFFFFFFFFFFFFF AND PUSH20 0xFFFFFFFFFFFFFFFFFFFFFFFFFFFFFFFFFFFFFFFF AND DUP2 MSTORE PUSH1 0x20 ADD SWAP1 DUP2 MSTORE PUSH1 0x20 ADD PUSH1 0x0 KECCAK256 DUP2 SWAP1 SSTORE POP PUSH2 0xD75 DUP3 DUP3 PUSH2 0x1250 JUMP JUMPDEST POP POP JUMP JUMPDEST PUSH1 0x0 DUP1 PUSH20 0xFFFFFFFFFFFFFFFFFFFFFFFFFFFFFFFFFFFFFFFF AND DUP4 PUSH20 0xFFFFFFFFFFFFFFFFFFFFFFFFFFFFFFFFFFFFFFFF AND EQ ISZERO ISZERO ISZERO PUSH2 0xDB6 JUMPI PUSH1 0x0 DUP1 REVERT JUMPDEST PUSH1 0x0 DUP1 CALLER PUSH20 0xFFFFFFFFFFFFFFFFFFFFFFFFFFFFFFFFFFFFFFFF AND PUSH20 0xFFFFFFFFFFFFFFFFFFFFFFFFFFFFFFFFFFFFFFFF AND DUP2 MSTORE PUSH1 0x20 ADD SWAP1 DUP2 MSTORE PUSH1 0x20 ADD PUSH1 0x0 KECCAK256 SLOAD DUP3 GT ISZERO ISZERO ISZERO PUSH2 0xE03 JUMPI PUSH1 0x0 DUP1 REVERT JUMPDEST PUSH2 0xE54 DUP3 PUSH1 0x0 DUP1 CALLER PUSH20 0xFFFFFFFFFFFFFFFFFFFFFFFFFFFFFFFFFFFFFFFF AND PUSH20 0xFFFFFFFFFFFFFFFFFFFFFFFFFFFFFFFFFFFFFFFF AND DUP2 MSTORE PUSH1 0x20 ADD SWAP1 DUP2 MSTORE PUSH1 0x20 ADD PUSH1 0x0 KECCAK256 SLOAD PUSH2 0x121B SWAP1 SWAP2 SWAP1 PUSH4 0xFFFFFFFF AND JUMP JUMPDEST PUSH1 0x0 DUP1 CALLER PUSH20 0xFFFFFFFFFFFFFFFFFFFFFFFFFFFFFFFFFFFFFFFF AND PUSH20 0xFFFFFFFFFFFFFFFFFFFFFFFFFFFFFFFFFFFFFFFF AND DUP2 MSTORE PUSH1 0x20 ADD SWAP1 DUP2 MSTORE PUSH1 0x20 ADD PUSH1 0x0 KECCAK256 DUP2 SWAP1 SSTORE POP PUSH2 0xEE7 DUP3 PUSH1 0x0 DUP1 DUP7 PUSH20 0xFFFFFFFFFFFFFFFFFFFFFFFFFFFFFFFFFFFFFFFF AND PUSH20 0xFFFFFFFFFFFFFFFFFFFFFFFFFFFFFFFFFFFFFFFF AND DUP2 MSTORE PUSH1 0x20 ADD SWAP1 DUP2 MSTORE PUSH1 0x20 ADD PUSH1 0x0 KECCAK256 SLOAD PUSH2 0x1234 SWAP1 SWAP2 SWAP1 PUSH4 0xFFFFFFFF AND JUMP JUMPDEST PUSH1 0x0 DUP1 DUP6 PUSH20 0xFFFFFFFFFFFFFFFFFFFFFFFFFFFFFFFFFFFFFFFF AND PUSH20 0xFFFFFFFFFFFFFFFFFFFFFFFFFFFFFFFFFFFFFFFF AND DUP2 MSTORE PUSH1 0x20 ADD SWAP1 DUP2 MSTORE PUSH1 0x20 ADD PUSH1 0x0 KECCAK256 DUP2 SWAP1 SSTORE POP DUP3 PUSH20 0xFFFFFFFFFFFFFFFFFFFFFFFFFFFFFFFFFFFFFFFF AND CALLER PUSH20 0xFFFFFFFFFFFFFFFFFFFFFFFFFFFFFFFFFFFFFFFF AND PUSH32 0xDDF252AD1BE2C89B69C2B068FC378DAA952BA7F163C4A11628F55A4DF523B3EF DUP5 PUSH1 0x40 MLOAD DUP1 DUP3 DUP2 MSTORE PUSH1 0x20 ADD SWAP2 POP POP PUSH1 0x40 MLOAD DUP1 SWAP2 SUB SWAP1 LOG3 PUSH1 0x1 SWAP1 POP SWAP3 SWAP2 POP POP JUMP JUMPDEST PUSH1 0x0 PUSH2 0x1029 DUP3 PUSH1 0x2 PUSH1 0x0 CALLER PUSH20 0xFFFFFFFFFFFFFFFFFFFFFFFFFFFFFFFFFFFFFFFF AND PUSH20 0xFFFFFFFFFFFFFFFFFFFFFFFFFFFFFFFFFFFFFFFF AND DUP2 MSTORE PUSH1 0x20 ADD SWAP1 DUP2 MSTORE PUSH1 0x20 ADD PUSH1 0x0 KECCAK256 PUSH1 0x0 DUP7 PUSH20 0xFFFFFFFFFFFFFFFFFFFFFFFFFFFFFFFFFFFFFFFF AND PUSH20 0xFFFFFFFFFFFFFFFFFFFFFFFFFFFFFFFFFFFFFFFF AND DUP2 MSTORE PUSH1 0x20 ADD SWAP1 DUP2 MSTORE PUSH1 0x20 ADD PUSH1 0x0 KECCAK256 SLOAD PUSH2 0x1234 SWAP1 SWAP2 SWAP1 PUSH4 0xFFFFFFFF AND JUMP JUMPDEST PUSH1 0x2 PUSH1 0x0 CALLER PUSH20 0xFFFFFFFFFFFFFFFFFFFFFFFFFFFFFFFFFFFFFFFF AND PUSH20 0xFFFFFFFFFFFFFFFFFFFFFFFFFFFFFFFFFFFFFFFF AND DUP2 MSTORE PUSH1 0x20 ADD SWAP1 DUP2 MSTORE PUSH1 0x20 ADD PUSH1 0x0 KECCAK256 PUSH1 0x0 DUP6 PUSH20 0xFFFFFFFFFFFFFFFFFFFFFFFFFFFFFFFFFFFFFFFF AND PUSH20 0xFFFFFFFFFFFFFFFFFFFFFFFFFFFFFFFFFFFFFFFF AND DUP2 MSTORE PUSH1 0x20 ADD SWAP1 DUP2 MSTORE PUSH1 0x20 ADD PUSH1 0x0 KECCAK256 DUP2 SWAP1 SSTORE POP DUP3 PUSH20 0xFFFFFFFFFFFFFFFFFFFFFFFFFFFFFFFFFFFFFFFF AND CALLER PUSH20 0xFFFFFFFFFFFFFFFFFFFFFFFFFFFFFFFFFFFFFFFF AND PUSH32 0x8C5BE1E5EBEC7D5BD14F71427D1E84F3DD0314C0F7B2291E5B200AC8C7C3B925 PUSH1 0x2 PUSH1 0x0 CALLER PUSH20 0xFFFFFFFFFFFFFFFFFFFFFFFFFFFFFFFFFFFFFFFF AND PUSH20 0xFFFFFFFFFFFFFFFFFFFFFFFFFFFFFFFFFFFFFFFF AND DUP2 MSTORE PUSH1 0x20 ADD SWAP1 DUP2 MSTORE PUSH1 0x20 ADD PUSH1 0x0 KECCAK256 PUSH1 0x0 DUP8 PUSH20 0xFFFFFFFFFFFFFFFFFFFFFFFFFFFFFFFFFFFFFFFF AND PUSH20 0xFFFFFFFFFFFFFFFFFFFFFFFFFFFFFFFFFFFFFFFF AND DUP2 MSTORE PUSH1 0x20 ADD SWAP1 DUP2 MSTORE PUSH1 0x20 ADD PUSH1 0x0 KECCAK256 SLOAD PUSH1 0x40 MLOAD DUP1 DUP3 DUP2 MSTORE PUSH1 0x20 ADD SWAP2 POP POP PUSH1 0x40 MLOAD DUP1 SWAP2 SUB SWAP1 LOG3 PUSH1 0x1 SWAP1 POP SWAP3 SWAP2 POP POP JUMP JUMPDEST PUSH1 0x0 PUSH1 0x2 PUSH1 0x0 DUP5 PUSH20 0xFFFFFFFFFFFFFFFFFFFFFFFFFFFFFFFFFFFFFFFF AND PUSH20 0xFFFFFFFFFFFFFFFFFFFFFFFFFFFFFFFFFFFFFFFF AND DUP2 MSTORE PUSH1 0x20 ADD SWAP1 DUP2 MSTORE PUSH1 0x20 ADD PUSH1 0x0 KECCAK256 PUSH1 0x0 DUP4 PUSH20 0xFFFFFFFFFFFFFFFFFFFFFFFFFFFFFFFFFFFFFFFF AND PUSH20 0xFFFFFFFFFFFFFFFFFFFFFFFFFFFFFFFFFFFFFFFF AND DUP2 MSTORE PUSH1 0x20 ADD SWAP1 DUP2 MSTORE PUSH1 0x20 ADD PUSH1 0x0 KECCAK256 SLOAD SWAP1 POP SWAP3 SWAP2 POP POP JUMP JUMPDEST PUSH1 0x0 DUP3 DUP3 GT ISZERO ISZERO ISZERO PUSH2 0x1229 JUMPI INVALID JUMPDEST DUP2 DUP4 SUB SWAP1 POP SWAP3 SWAP2 POP POP JUMP JUMPDEST PUSH1 0x0 DUP2 DUP4 ADD SWAP1 POP DUP3 DUP2 LT ISZERO ISZERO ISZERO PUSH2 0x1247 JUMPI INVALID JUMPDEST DUP1 SWAP1 POP SWAP3 SWAP2 POP POP JUMP JUMPDEST PUSH1 0x0 DUP1 DUP4 PUSH20 0xFFFFFFFFFFFFFFFFFFFFFFFFFFFFFFFFFFFFFFFF AND PUSH20 0xFFFFFFFFFFFFFFFFFFFFFFFFFFFFFFFFFFFFFFFF AND DUP2 MSTORE PUSH1 0x20 ADD SWAP1 DUP2 MSTORE PUSH1 0x20 ADD PUSH1 0x0 KECCAK256 SLOAD DUP2 GT ISZERO ISZERO ISZERO PUSH2 0x129D JUMPI PUSH1 0x0 DUP1 REVERT JUMPDEST PUSH2 0x12EE DUP2 PUSH1 0x0 DUP1 DUP6 PUSH20 0xFFFFFFFFFFFFFFFFFFFFFFFFFFFFFFFFFFFFFFFF AND PUSH20 0xFFFFFFFFFFFFFFFFFFFFFFFFFFFFFFFFFFFFFFFF AND DUP2 MSTORE PUSH1 0x20 ADD SWAP1 DUP2 MSTORE PUSH1 0x20 ADD PUSH1 0x0 KECCAK256 SLOAD PUSH2 0x121B SWAP1 SWAP2 SWAP1 PUSH4 0xFFFFFFFF AND JUMP JUMPDEST PUSH1 0x0 DUP1 DUP5 PUSH20 0xFFFFFFFFFFFFFFFFFFFFFFFFFFFFFFFFFFFFFFFF AND PUSH20 0xFFFFFFFFFFFFFFFFFFFFFFFFFFFFFFFFFFFFFFFF AND DUP2 MSTORE PUSH1 0x20 ADD SWAP1 DUP2 MSTORE PUSH1 0x20 ADD PUSH1 0x0 KECCAK256 DUP2 SWAP1 SSTORE POP PUSH2 0x1345 DUP2 PUSH1 0x1 SLOAD PUSH2 0x121B SWAP1 SWAP2 SWAP1 PUSH4 0xFFFFFFFF AND JUMP JUMPDEST PUSH1 0x1 DUP2 SWAP1 SSTORE POP DUP2 PUSH20 0xFFFFFFFFFFFFFFFFFFFFFFFFFFFFFFFFFFFFFFFF AND PUSH32 0xCC16F5DBB4873280815C1EE09DBD06736CFFCC184412CF7A71A0FDB75D397CA5 DUP3 PUSH1 0x40 MLOAD DUP1 DUP3 DUP2 MSTORE PUSH1 0x20 ADD SWAP2 POP POP PUSH1 0x40 MLOAD DUP1 SWAP2 SUB SWAP1 LOG2 PUSH1 0x0 PUSH20 0xFFFFFFFFFFFFFFFFFFFFFFFFFFFFFFFFFFFFFFFF AND DUP3 PUSH20 0xFFFFFFFFFFFFFFFFFFFFFFFFFFFFFFFFFFFFFFFF AND PUSH32 0xDDF252AD1BE2C89B69C2B068FC378DAA952BA7F163C4A11628F55A4DF523B3EF DUP4 PUSH1 0x40 MLOAD DUP1 DUP3 DUP2 MSTORE PUSH1 0x20 ADD SWAP2 POP POP PUSH1 0x40 MLOAD DUP1 SWAP2 SUB SWAP1 LOG3 POP POP JUMP STOP LOG1 PUSH6 0x627A7A723058 KECCAK256 PUSH23 0x4CE6B26F385CC0F5951EF52FC6B4E7FDB63602EA4E67A0 STATICCALL SDIV 0x2a SWAP11 DUP14 MOD DUP11 STATICCALL STOP 0x29 "
    },
    "methodIdentifiers": {
      "allowance(address,address)": "dd62ed3e",
      "approve(address,uint256)": "095ea7b3",
      "balanceOf(address)": "70a08231",
      "burn(uint256)": "42966c68",
      "burnFrom(address,uint256)": "79cc6790",
      "decreaseApproval(address,uint256)": "66188463",
      "increaseApproval(address,uint256)": "d73dd623",
      "totalSupply()": "18160ddd",
      "transfer(address,uint256)": "a9059cbb",
      "transferFrom(address,address,uint256)": "23b872dd"
    }
  },
  "userdoc": {
    "methods": {}
  }
}